:100000000C94DC000C94F9000C94F9000C94F900A9
:100010000C94F9000C94F9000C94F9000C94F9007C
:100020000C94F9000C94F9000C94F9000C94F9006C
:100030000C94F9000C94F9000C94F9000C94F9005C
:100040000C94F9000C94F9000C9454020C94F900EF
:100050000C94F9000C94F9000C94F9000C94F9003C
:100060000C94F9000C94F9006E616E00696E6600E4
:1000700000407A10F35A00A0724E18090010A5D45F
:10008000E80000E87648170000E40B54020000CABC
:100090009A3B000000E1F505000080969800000002
:1000A00040420F000000A086010000001027000061
:1000B0000000E803000000006400000000000A00E7
:1000C000000000000100000000002C76D888DC67EA
:1000D0004F0823DFC1DFAE59E1B1B796E5E3E45342
:1000E000C63AE651997696E8E6C28426EB898C9B5F
:1000F00062ED407C6FFCEFBC9C9F40F2BAA56FA5FF
:10010000F490055A2AF75C936B6CF9676DC11BFC80
:10011000E0E40D47FEF520E6B500D0ED902E03009B
:10012000943577050080841E080000204E0A0000E8
:1001300000C80C333333330F986E12831141EF8DA7
:100140002114893BE65516CFFEE6DB18D1844B38E7
:100150001BF77C1D901DA4BBE424203284725E2218
:100160008100C9F124ECA1E53D276364696E6F70DD
:10017000737578585B65666745464700616E006E2B
:1001800066696E69747900CDCCCC3D0AD7233C17E3
:10019000B7D13877CC2B329595E6241FB14F0A00A2
:1001A0000020410000C84200401C4620BCBE4CCA92
:1001B0001B0E5AAEC59D740011241FBECFEFD8E0B0
:1001C000DEBFCDBF21E0AEE3B1E001C01D92A83893
:1001D000B207E1F711E0A0E0B1E0E0E9F0E202C02F
:1001E00005900D92AE33B107D9F70E9497020C9497
:1001F00046100C9400008091C00087FFFCCF8091D6
:10020000C00084FD08C08091C00083FD07C08091BC
:10021000C60090E008958EEF9FEF08958FEF9FEF57
:100220000895CF93C82F8A3019F48DE00E941101F0
:100230008091C00085FFFCCFC093C60090E080E0B5
:10024000CF9108951092C50087E68093C400E0EC3A
:10025000F0E080818D7F808386E08093C20088E11A
:100260008093C10008958093BB0084E88093BC0014
:100270008091BC0087FFFCCF9091B900987F81E00E
:10028000983209F480E0089524EA34E844E92093A0
:10029000BC009091BC0097FFFCCF9091B900987F73
:1002A000983011F0903199F78093BB003093BC00E7
:1002B0009091BC0097FFFCCF9091B900987F90324D
:1002C00011F0983539F44093BC009091BC0094FD36
:1002D000FCCFDDCF0895CF93C82F8EE40E94440158
:1002E000809141018C2B0E94330184E98093BC00F2
:1002F0008091BC0084FDFCCFCF910895CF93DF9314
:10030000C82FD82FDD7F8D2F0E946B018D2F846029
:100310000E946B0185E08A95F1F700008C2F897FA0
:100320000E946B0187EC90E00197F1F700C000009C
:10033000DF91CF910895CF93DF93D82FC62FC4605C
:10034000807F8C2B0E947E018D2F8295807F8C2B4D
:10035000DF91CF910C947E0161E00E949B0190E0BF
:1003600080E0089560E00C949B01CF93DF93CDB7BC
:10037000DEB728970FB6F894DEBF0FBECDBF98E06A
:10038000E2E2F1E0DE01119601900D929A95E1F71B
:1003900090917D01891710F08FEF890F90E0880F01
:1003A000991F21E030E02C0F3D1F820F931FFC01AD
:1003B0008081806828960FB6F894DEBF0FBECDBF4F
:1003C000DF91CF910C94B20180E091E09093810194
:1003D000809380018091410188608093410184E095
:1003E00080937D012FEF80E792E021508040904084
:1003F000E1F700C000008EE40E94440184E00E9406
:1004000033018FE891E00197F1F700C0000080E32D
:100410000E947E018FE496E40197F1F700C000008E
:1004200080E30E947E0187E592E00197F1F700C02A
:10043000000080E30E947E0187E592E00197F1F7DA
:1004400000C0000080E20E947E0187E592E00197F3
:10045000F1F700C0000088E20E94B2011092400152
:1004600088E00E94B20180914001982F946090939F
:1004700040018C600E94B20186E00E94B20180912E
:10048000400188600E94B20188E10E94B20181E0CF
:100490000E94B2019FEF26E781E09150204080400A
:1004A000E1F700C0000008951F920F920FB60F925F
:1004B00011248F939F93EF93FF9380916401909108
:1004C00065010097E9F0019749F48091C600E09139
:1004D0006601F0916701EE5BFE4F808380916601BB
:1004E0009091670101969093670180936601FF9157
:1004F000EF919F918F910F900FBE0F901F901895C5
:10050000E0916601F09167018091C600EE58FE4FC0
:10051000808380916601909167010997F8F21092AB
:1005200067011092660181E080937C01D7CF4F92E2
:100530005F927F928F929F92AF92BF92CF92DF9203
:10054000EF92FF920F931F93CF93DF931092B90016
:1005500088E48093B80080E90E94440181E00E9411
:10056000330180E00E94330184E98093BC008091D4
:10057000BC0084FDFCCF0E9422018EE091E09093AC
:1005800081018093800190937F0180937E018FEFA2
:100590008AB91BB880EF87B98FE388B9259A809113
:1005A000C10080688093C10078948091640190912B
:1005B0006501892BD1F1CAE09C2E88248394DEE06A
:1005C000AD2ED1E0BD2E850182E0E82EF12C809188
:1005D000640190916501019709F47DC00AE211E080
:1005E00034E3E32E31E0F32E40E3C42E41E0D42E79
:1005F0005EE0A52E51E0B52E8091640190916501D9
:10060000029709F418C190E080E0DF91CF911F912B
:100610000F91FF90EF90DF90CF90BF90AF909F90A1
:100620008F907F905F904F90089580917C018823F8
:1006300009F4BBCF809174018695869590E09093E4
:1006400071018093700180916E0190916F01892BEF
:1006500021F080916E0190916F018091740190E082
:1006600090936D0180936C0180916C0190916D016C
:1006700062E070E0880F991F0E94E80E9093690174
:100680008093680180916C0190916D0161E070E050
:100690000E94E80E90936B0180936A0190E080E0E5
:1006A000FC01EE58FE4F20813091C00035FFFCCF99
:1006B0002093C60001968A30910591F710927C0133
:1006C000109267011092660181E090E090936501BD
:1006D000809364016ACF8091660190916701809751
:1006E00008F475CF1092670110926601C091620103
:1006F000D09163010E94E40180E00E94B501409125
:100700006A0150916B01609168017091690190E0FC
:1007100080E0FC01EE5BFE4FA0819C012F5F3F4F0C
:10072000A73409F046C0FA01EC0FFD1F80822E5B52
:100730003E4FD9012C91FE01EE0FFF1FE60FF71F70
:100740002F702150330B3183208321960196803204
:100750009105FCF20E942201B0928101A0928001D9
:1007600010937F0100937E01D0936301C0936201D7
:1007700090E080E0FC01EE5BFE4F20813091C000F4
:1007800035FFFCCF2093C60001968032910591F78A
:100790008091700190917101892B09F018CF80919F
:1007A000C1008F778093C100F0926501E0926401EF
:1007B0000ECFE081E83551F6FA01EC0FFD1F1082F3
:1007C000FE01EE0FFF1FE60FF71F1082A22F8A2FE8
:1007D000932F9C012E5B3E4F2901D901DC909C0197
:1007E0002F5F3F4FB9E5DB121BC0118221E030E0E3
:1007F0006201C20ED31ED6017C90B72DB07309F4EE
:10080000A4CF7180799C702C11247182D601DC9068
:10081000BD2DBF70DB2ED70CD1822F5F3F4FE8CFAD
:100820008081899D902D11249083D2018C918F70AD
:10083000890F8083CBCF0E94E40180E00E94B50144
:1008400080916E0190916F019F938F931F930F93EF
:100850000E9430100F900F900F900F90D0E0C0E0EA
:1008600080916C0190916D01C817D90758F00E94D2
:100870002201B0928101A0928001B0927F01A092EA
:100880007E01BACE8C2F83700E94B501CE01880FF5
:10089000991FA0916A01B0916B01AC0FBD1F2C9103
:1008A000E0916801F0916901E80FF91F2223C1F07E
:1008B0008081918101969F938F93DF92CF920E94C6
:1008C00030100F900F900F900F90EFEFFDE329E4A1
:1008D000E150F0402040E1F700C000002196C0CF79
:1008E00081811F928F9380811F928F93FF92EF924D
:1008F0000E9430100F900F900F900F900F900F905C
:10090000E4CFAFE0B0E0E7E8F4E00C94C20C6C0197
:100910001B015A01FC0117821682838181FF48C3A3
:100920009E012F5F3F4F4901F6019381F10193FD35
:10093000859193FF81911F01882309F4E7C28532D5
:1009400039F493FD859193FF81911F01853239F42C
:10095000B60190E00E943F0E35015301E5CFF12C26
:10096000512C00E0003238F48B3209F190F48032DF
:10097000F9F0833209F107FD34C020ED280F2A3049
:1009800020F506FF1BC0FAE0FF9E200D1124F22E79
:1009900005C08D3279F0803371F70160F10193FD6C
:1009A000859193FF81911F018111DCCF1AC00260F4
:1009B0000460F4CF0860F2CF0061F0CF3AE0539EBC
:1009C000200D1124522E0062E9CF8E3221F406FD53
:1009D0009DC20064E3CF8C3611F40068DFCF883607
:1009E000E9F29BEB980F933008F05FC00061805EE6
:1009F00006FD02C046E0F42E102F1F73853609F065
:100A00005BC0106417FF61C08F2D9BE39F1508F436
:100A10008BE344244394480E27E03501F4E06F0E45
:100A2000711CF5016081718182819381042DA40183
:100A30000E94F90C5C01F981FC87F0FF03C00DE214
:100A4000F3FF07C00BE211FD04C0012F047012FD7B
:100A500000E22C852C70E22E09F457C00111ABC2C4
:100A6000F3E0E12CF515A0F483E0E52CE81A13FD82
:100A700008C0B60180E290E00E943F0EEA94E110C7
:100A8000F8CF002329F0B601802F90E00E943F0E9E
:100A90003C8528E6A22E20E0B22E33FD04C09CE661
:100AA000A92E90E0B92E107122C09BE9980F9330C7
:100AB00008F033C10F7E9CCF863611F41068A2CFA8
:100AC000FF2009F49FCFFA949DCFE7E02F2DEF157B
:100AD00018F427E037E0F32E412C9FCF11118052FC
:100AE000B60190E00E943F0E8FEFA81AB80AF501F8
:100AF00084918111F3CFEE2009F42FCFB60180E26B
:100B000090E00E943F0EEA94F6CF17FF6FC04A0CA8
:100B1000FC85F4FF04C08A81813309F44A941414DB
:100B20000CF086C028E0241510F488E0482E85E0FB
:100B300090E017FF06C0C501B7FE02C090E080E05C
:100B4000019601110196FF2031F02F2D30E02F5F2B
:100B50003F4F820F931F5816190619F014F0E52C19
:100B6000E81A812F897011F4E11067C0002329F081
:100B7000B601802F90E00E943F0E13FD02C0E110ED
:100B800063C017FF7CC08501B7FE02C010E000E023
:100B9000C501841991092C016F2D70E0EE27FF2704
:100BA000E61BF70BFF87EE870F3F100729F4B6010E
:100BB0008EE290E00E943F0EA016B1060CF44BC0EE
:100BC000401651060CF047C0F501E01BF10BE80D93
:100BD000F91D8181015011092E853F8502171307E8
:100BE000E4F1B60190E00E943F0EDECF16FD9FCFEC
:100BF000EF2DF0E0EA15FB0534F03CEFA3163FEFD4
:100C0000B3060CF010683296E80DF91D01C0FA9495
:100C1000FF2019F082918033D1F317FF88CF44244D
:100C200043944F0CFA141B0431F02CF0FA187FCFC8
:100C3000442443947CCFF12C7ACFB60180E290E03B
:100C40000E943F0EEA9490CFB60180E390E00E94AC
:100C50003F0EEA9494CF80E3BDCFA016B10641F4D5
:100C60009A81963350F4953319F43C8534FF05C0CE
:100C7000B60190E00E943F0E3ECF81E3F9CF8A811A
:100C8000813319F09C859F7E9C87B60190E00E947D
:100C90003F0EFF20A9F0B6018EE290E00E943F0EC9
:100CA000F394F394E2E001E00E0FE80DF92DF11D4D
:100CB0008081B60190E00E943F0EE02F0F11F3CF2C
:100CC00085E690E014FF02C085E490E0B6010E9442
:100CD0003F0EB7FC06C0A114B104C1F4EC85E4FFDB
:100CE00015C0B194A194B1088DE2B60190E00E94C4
:100CF0003F0E80E32AE0A216B10454F4B60190E05E
:100D00000E943F0EB601C501C096B4CF8BE2EDCF75
:100D10008F5FFAE0AF1AB108EDCF8336C9F08337A1
:100D200071F1833509F05BC03501F2E06F0E711C83
:100D3000F501A080B1806F2D70E006FD02C06FEF5D
:100D40007FEFC5010E94ED0D9D878C8700680DC067
:100D5000350132E0630E711CF5018081898321E049
:100D600030E03D872C8754010F7703FD06C02C85AA
:100D70003D855216130609F0A8F4E52C2BC0350169
:100D800032E0630E711CF501A080B1806F2D70E020
:100D900006FD02C06FEF7FEFC5010E94F80D9D8731
:100DA0008C87E2CFB60180E290E00E943F0E5A9419
:100DB000DECFF50107FD859107FF81915F01B60147
:100DC00090E00E943F0EE110EA948C859D8501978A
:100DD0009D878C87EC85FD85EF2B59F78CCE84366B
:100DE00019F0893609F074C0350107FF66C0F4E0D8
:100DF0006F0E711CF5016081718182819381102FCA
:100E00001F7697FF08C090958095709561957F4FEC
:100E10008F4F9F4F10682AE030E0A4010E94870E98
:100E2000A82EA818BA2C012F16FF0AC00E7FAF14E7
:100E300038F414FF04C012FD02C0012F0E7EBF2C37
:100E400004FF8EC0FE01EA0DF11D8081803309F0A0
:100E500080C0097EF02FF870EF2E03FD90C000FFD8
:100E60008AC0FA2CB51410F4F50CFB1804FF8DC0E1
:100E7000B60180E390E00E943F0E02FF09C088E7C0
:100E800090E001FF02C088E590E0B6010E943F0EAD
:100E9000AF1408F486C0AA940A2D10E00F5F1F4F0C
:100EA000080D191DF80182918F01B60190E00E9492
:100EB0003F0E80169106B1F71ECEF2E06F0E711C48
:100EC000F50160817181072E000C880B990B97CF7B
:100ED000102F8537A9F41F7E2AE030E0350117FF77
:100EE0002FC0F4E06F0E711CF50160817181828169
:100EF0009381A4010E94870EA82EA8181F7792CF75
:100F0000197F8F36D1F048F4883591F0F60186814B
:100F100097812F96E2E10C94DE0C803739F0883708
:100F2000A9F714FD146020E130E0D8CF1061F9CFAB
:100F300004FD166020E132E0D1CF28E030E0CECFD2
:100F4000F2E06F0E711CF5016081718190E080E02C
:100F5000D0CF02FD02C0B3947DCFB394B3947ACFC7
:100F6000802F867809F476CFF6CFB60180E290E044
:100F70000E943F0EB394B514C0F3E12C77CFE52C5B
:100F8000EB18B51408F472CFF8CF802F867809F4E7
:100F90007FCF8BE201FF80E207FD8DE2B60190E09A
:100FA00075CFB60180E390E00E943F0EFA9470CFB7
:100FB0008FEF9FEFAECF24E0E12C251508F063CD35
:100FC00084E053CD20FD09C0FC0123FD05C022FFB4
:100FD00002C07383628351834083089544FD17C028
:100FE00046FD1DC0DB01FC01AA0FBB1FEE1FFF1F4A
:100FF0001094D1F76A0F7B1F8E1F9F1F660F771FFC
:10100000881F991F620F711D811D911D089533E086
:10101000660F771F881F991F3150D1F7F3CF34E047
:10102000F7CF0F931F93CF93DF938C01C8010E94DA
:10103000030EEC0197FD08C00E94D10D892BB1F77A
:10104000B801CE010E946F0ECE01DF91CF911F91AA
:101050000F910895B0E0A0E0E0E3F8E00C94C80C34
:101060007C018B016A01D22F0E94030E9C01332761
:101070002B32310521F02D32310579F4D068015041
:10108000110931F480E0CDB7DEB7ECE00C94E40C4C
:10109000C7010E94030E97FDF5CFCD2FCD7F2D2FD9
:1010A000207309F58033F9F4580181E0A81AB108DA
:1010B00091F0C7010E94030E97FD0DC0282F2F7DD0
:1010C000283569F4C2640250110929F0C7010E9451
:1010D000030E97FF08C0812C912C54011BC0D6FF32
:1010E0002BC0C2608501812C912C540120ED280F6A
:1010F000283028F1C4FD09C02A3008F1C6FF05C018
:101100002F7D3FEE320F3630C8F0B7010E946F0ED0
:10111000C1FFB8CFC7FF08C0B094A094909480944A
:10112000811C911CA11CB11C2C2FB501A401C6016E
:101130000E94E20781E0A7CFC261D4CF27504C2F95
:10114000C501B4010E94EE074B015C01C260015071
:10115000110901F3C7010E94030E97FFC7CFD8CF33
:10116000A0E2B0E0E6EBF8E00C94C60C5C014B01A9
:101170007A01CE0101966C0180E2F60111928A9506
:10118000E9F7F501B381890130E020E0612C712C91
:10119000A0E041E050E0F801B3FD8591B3FF8191FB
:1011A000982F8F01811107C010E000E0C801A096C0
:1011B000EEE00C94E20C8E3519F42115310541F165
:1011C000A21713064CF48D3549F18D3229F47110B4
:1011D00006C0772473941DC0772009F465C0E92FF9
:1011E000E695E695E695EC0DFD2DF11D892F8770AE
:1011F000BA0101C0660F8A95EAF78081682B608387
:10120000691651F0961510F49F5FE9CF9150E7CF22
:10121000A1E02F5F3F4FBFCF712CFBCF772019F09C
:101220008E8180628E83AA2359F0F6019E012F5D84
:101230003F4F8081809580833196E217F307C9F78D
:1012400077247394C5010E94030E97FD16C0E82F02
:10125000E695E695E695EC0DFD2DF11D208130E03B
:10126000AC014770552702C0359527954A95E2F79E
:1012700020FD06C0B5010E946F0E772071F094CF5B
:10128000E114F10429F0F7018083C70101967C0184
:1012900091E0891A9108712CA9F6E114F10409F47E
:1012A00085CFF701108282CFE82FE695E695E69587
:1012B000EC0DFD2DF11D982F9770BA0101C0660F3E
:1012C0009A95EAF79081692B6083682EA2CF2F92BE
:1012D0003F924F925F926F927F929F92AF92BF9296
:1012E000CF92DF92EF92FF920F931F93CF93DF93F2
:1012F0006C018B011A010E94030EEC0199278B32BD
:10130000910521F08D97C9F0B12C20C0B12C01506E
:101310001109B1F480E0DF91CF911F910F91FF90FF
:10132000EF90DF90CF90BF90AF909F907F906F90A5
:101330005F904F903F902F90089530E8B32EE7CF05
:10134000C6010E94030EEC0197FDE4CFCE010E947E
:10135000DA0D8936910509F4C0C08E36910509F47D
:10136000ACC0412C512C3201F12CE12C2C2F2053FC
:101370009B2C2A3008F0CFC0689491F88B2D887090
:10138000B2FEB0C0811103C0EFEFEE1AFE0A0150A9
:10139000110931F0C6010E94030EEC0197FFA0C0B5
:1013A00091FEB8CF8C2F8F7D853409F042C0580153
:1013B000E1E0AE1AB10809F4ADCFC6010E94030EF8
:1013C000EC0197FDA7CF99278B32910521F08D97DE
:1013D00061F4689494F85801F2E0AF1AB10809F486
:1013E00099CFC6010E94030EEC01CE01C0970A9767
:1013F00008F090CF10E000E0B801110F880B990BB6
:101400002C2F205340E20E94EE078B0121E0A21A0C
:10141000B10839F0C6010E94030EEC01C0970A978B
:1014200058F394FE03C0119501951109E00EF11EC9
:101430008501012B31F0D7FD04C0B601CE010E9419
:101440006F0EC301B2010E94C70BC3EBD1E0F7FEE0
:1014500005C0F194E194F108CBE9D1E06E01E8E137
:10146000CE1AD10800E210E067C00150110971F0F6
:10147000C6010E94030E3C0197FD08C00E94DA0DD0
:10148000F816E9F0B601C3010E946F0EC258D140B0
:1014900009F040CF80E090E0A0E8BFE7BC01CD01BB
:1014A0009B2C97FC90582114310429F0F1016083A2
:1014B00071838283938381E02ECFCCE7D1E02196A4
:1014C000FE013197F490F110D0CFCF57D14011F7F2
:1014D00080E090E0A0ECBFE7E1CFCFE7D1E0EFCF35
:1014E000B92C44CF882319F0F1E0EF1AF10840E25B
:1014F000C301B2010E94EE072B013C0128E942160C
:1015000029E95206620629E1720608F440CF8B2DC4
:101510008660982E3CCF2E3F09F042CFB3FC40CFDF
:10152000689493F834CFFE012591359145915491FB
:101530000E94040CE01AF10AE016F106A0F72497C5
:1015400016950795CC15DD05B9F7ABCFB0E0A0E057
:10155000ECEAFAE00C94C60C5C01EB014A01FC01D8
:1015600017821682612CF5010381FE0103FD85912E
:1015700003FF8191182FEF018823E9F090E00E948A
:10158000D10D892B21F0C5010E941108ECCF153235
:1015900041F4FE0103FD159103FF1191EF01153296
:1015A00069F4C5010E94030E97FD96C01817D9F281
:1015B000B5010E946F0E862D90E092C0712C1A32F8
:1015C00039F403FD159103FF1191EF017724739412
:1015D000F12CE12C20ED210F2A3050F171FE38C0A2
:1015E000E114F10441F31836B9F11C3609F43FC097
:1015F000112309F3612F70E08AE691E00E94E20D69
:10160000892BC9F2D12CC12C70FC06C0F401C0801A
:10161000D180C40102964C011E3691F5F501468138
:10162000578170E060E0272DC6010E94E2079BCF42
:10163000689471F8B70190E080E040E20E94EE0704
:101640007B01FE0103FD159103FF1191EF01C2CF54
:10165000EE24EA94FE2CC7CFFE0103FD159103FF93
:101660001191EF01183609F0C3CF689473F86894AC
:1016700072F8FE0103FD159103FF1191EF01B8CF40
:101680001336D1F471FC03C0EE24E394F12CC501B0
:101690000E94030E97FD20C0C114D10429F0F60169
:1016A0008083C60101966C0191E0E91AF10879F78F
:1016B00070FC59CF639457CF1B35B9F49E01A60136
:1016C000B701C5010E94B008EC01892B89F7F5012B
:1016D0008381807309F46FCF8FEF9FEF61106BCF21
:1016E000CDB7DEB7EEE00C94E20CC5010E94110804
:1016F00097FDF2CF1F3609F447C090F4143609F471
:1017000040C0193621F0183581F4689476F8272DF9
:10171000A601B701C5010E942A088111C9CFD7CF00
:101720001337D1F040F4103781F3A601B701C5019A
:101730000E946709F2CF153721F1183731F3F5CF41
:10174000C114D10429F0F6010083C60101966C0191
:1017500091E0E91AF10871F0C5010E94030E8C01B5
:1017600097FD08C00E94D10D892B51F3B501C80126
:101770000E946F0EC114D10409F49ACFF6011082B1
:1017800097CF689475F8C3CF689474F8C0CFE89485
:1017900009C097FB3EF490958095709561957F4FB9
:1017A0008F4F9F4F9923A9F0F92F96E9BB27939567
:1017B000F695879577956795B795F111F8CFFAF477
:1017C000BB0F11F460FF1BC06F5F7F4F8F4F9F4FA8
:1017D00016C0882311F096E911C0772321F09EE806
:1017E000872F762F05C0662371F096E8862F70E06C
:1017F00060E02AF09A95660F771F881FDAF7880F46
:101800009695879597F908950E94170C0C94880C6B
:101810000E947A0C38F00E94810C20F0952311F080
:101820000C94710C0C94770C11240C94BC0C0E9439
:10183000990C70F3959FC1F3950F50E0551F629F6F
:10184000F001729FBB27F00DB11D639FAA27F00D19
:10185000B11DAA1F649F6627B00DA11D661F829F40
:101860002227B00DA11D621F739FB00DA11D621F25
:10187000839FA00D611D221F749F3327A00D611D42
:10188000231F849F600D211D822F762F6A2F112424
:101890009F5750409AF0F1F088234AF0EE0FFF1F57
:1018A000BB1F661F771F881F91505040A9F79E3FAE
:1018B000510580F00C94710C0C94BC0C5F3FE4F368
:1018C000983ED4F3869577956795B795F795E79504
:1018D0009F5FC1F7FE2B880F911D9695879597F90D
:1018E000089597F99F6780E870E060E008959FEFA2
:1018F00080EC089500240A941616170618060906A7
:10190000089500240A941216130614060506089575
:10191000092E0394000C11F4882352F0BB0F40F4FD
:10192000BF2B11F460FF04C06F5F7F4F8F4F9F4F3D
:10193000089557FD9058440F551F59F05F3F71F0BF
:101940004795880F97FB991F61F09F3F79F0879526
:101950000895121613061406551FF2CF4695F1DFAF
:1019600008C0161617061806991FF1CF869571053F
:10197000610508940895E894BB2766277727CB0173
:1019800097F908952F923F924F925F926F927F92B4
:101990008F929F92AF92BF92CF92DF92EF92FF927F
:1019A0000F931F93CF93DF93CDB7DEB7CA1BDB0B2B
:1019B0000FB6F894DEBF0FBECDBF09942A883988D0
:1019C00048885F846E847D848C849B84AA84B984D7
:1019D000C884DF80EE80FD800C811B81AA81B981E3
:1019E000CE0FD11D0FB6F894DEBF0FBECDBFED01F7
:1019F0000895283008F027E03327DA01990F311DC8
:101A000087FD916000966105710539F432602E5FA3
:101A10003D9330E32A95E1F708959F3F30F08038F9
:101A20007105610509F03C5F3C5F3D93913008F022
:101A30008068911DDF93CF931F930F93FF92EF92D6
:101A4000192F987F9695E92F96959695E90FFF2780
:101A5000E653FF4F99273327EE24FF24A701E70120
:101A600005900894079428F4360FE71EF81E491FC6
:101A7000511D660F771F881F991F0694A1F70590C7
:101A8000079428F4E70EF81E491F561FC11D770F53
:101A9000881F991F661F0694A1F70590079428F4E4
:101AA000F80E491F561FC71FD11D880F991F661FAB
:101AB000771F0694A1F70590079420F4490F561F4D
:101AC000C71FD81F990F661F771F881F0694A9F795
:101AD00084911095177041F0D695C7955795479505
:101AE000F794E7941A95C1F7E0E7F0E06894159051
:101AF000159135916591959105907FE27395E11867
:101B0000F10A430B560BC90BD009C0F7E10CF11ECB
:101B1000431F561FC91FD01D7EF4703311F48A95E0
:101B2000E6CFE894015030F0080F0AF400270217BE
:101B300008F4202F2395022F7A3328F079E37D9340
:101B40002A95E9F710C07D932A9589F60694979512
:101B50006795379517951794E118F10A430B560BC3
:101B6000C90BD00998F023957E9173957A3308F0CC
:101B700070E37C932013B8F77E9170617D9330F011
:101B8000839571E37D9370E32A95E1F71124EF903B
:101B9000FF900F911F91CF91DF91992787FD90952D
:101BA000089591110C94E50E803219F089508550FA
:101BB000C8F708959111089581548A5108F4805E00
:101BC000855A0895FC010590061621F00020D9F7EA
:101BD000C00108953197CF010895FC01059061502F
:101BE00070400110D8F7809590958E0F9F1F089533
:101BF000FC016150704001900110D8F780959095DC
:101C00008E0F9F1F0895CF93DF93EC012B8120FF50
:101C10001AC026FF0CC02F7B2B838E819F810196DB
:101C20009F838E838A8190E0DF91CF91089522FF78
:101C300018C0E881F9818081082E000C990B00976B
:101C400029F420622B838FEF9FEFEECF3196F9833B
:101C5000E8832E813F812F5F3F4F3F832E8399275B
:101C6000E3CFEA85FB85099597FFF3CF2B8101969A
:101C700021F080E2822B8B83E6CF80E1FBCF0F93B4
:101C80001F93CF93DF93182F092FEB018B8181FDD9
:101C900009C01FEF0FEF812F902FDF91CF911F9180
:101CA0000F91089582FF14C02E813F818C819D8108
:101CB000281739073CF4E881F981CF01019699830F
:101CC000888310838E819F8101969F838E83E3CFCB
:101CD000E885F985812F0995892BA1F3DACFFB01DE
:101CE000238120FF11C026FD0FC08F3F980771F0A0
:101CF00082832F7D206423832681378121503109FF
:101D000037832683992708958FEF9FEF0895FA016F
:101D1000AA27283051F1203181F1E8946F936E7F2A
:101D20006E5F7F4F8F4F9F4FAF4FB1E03ED0B4E01B
:101D30003CD0670F781F891F9A1FA11D680F791F5C
:101D40008A1F911DA11D6A0F711D811D911DA11D6D
:101D500020D009F468943F912AE0269F112430197D
:101D6000305D3193DEF6CF010895462F4770405D18
:101D70004193B3E00FD0C9F7F6CF462F4F70405DC7
:101D80004A3318F0495D31FD4052419302D0A9F722
:101D9000EACFB4E0A6959795879577956795BA951C
:101DA000C9F700976105710508959B01AC010A2EE2
:101DB00006945795479537952795BA95C9F7620FB9
:101DC000731F841F951FA01D0895992788270895C4
:101DD0000F931F93CF93DF93869F8001879F100DF2
:101DE000969F100D1124C8010E94040FEC0100976A
:101DF00029F0A80170E060E00E942910CE01DF9177
:101E0000CF911F910F9108950F931F93CF93DF935D
:101E10008230910510F482E090E0E0918601F0912B
:101E2000870130E020E0B0E0A0E0309799F4211580
:101E3000310509F44AC0281B390B24303105D8F587
:101E40008A819B816115710589F1FB0193838283EE
:101E5000FE0111C040815181028113814817590749
:101E6000E0F04817590799F4109761F012960C9317
:101E7000129713961C933296CF01DF91CF911F9149
:101E80000F9108950093860110938701F4CF2115D7
:101E9000310551F04217530738F0A901DB019A01CF
:101EA000BD01DF01F801C1CFEF01F9CF90938701A8
:101EB00080938601CDCFFE01E20FF31F81939193B2
:101EC0002250310939832883D7CF20918401309162
:101ED0008501232B41F420911E0130911F01309385
:101EE00085012093840120911C0130911D01211551
:101EF000310541F42DB73EB74091200150912101A9
:101F0000241B350BE0918401F0918501E217F30762
:101F1000A0F42E1B3F0B2817390778F0AC014E5F59
:101F20005F4F2417350748F04E0F5F1F5093850110
:101F300040938401819391939FCFF0E0E0E09CCFA8
:101F4000CF93DF930097E9F0FC013297138212825E
:101F5000A0918601B0918701ED0130E020E010975B
:101F6000A1F420813181820F931F2091840130914F
:101F700085012817390709F061C0F0938501E093C6
:101F80008401DF91CF910895EA01CE17DF07E8F5CC
:101F90004A815B819E0141155105B1F7E901FB833F
:101FA000EA8349915991C40FD51FEC17FD0761F4DD
:101FB000808191810296840F951FE901998388831E
:101FC000828193819B838A83F0E0E0E012968D9179
:101FD0009C9113970097B9F52D913C911197CD01E4
:101FE0000296820F931F209184013091850128175A
:101FF000390739F6309751F5109287011092860112
:10200000B0938501A0938401BCCFD383C283408168
:102010005181840F951FC817D90761F44E5F5F4F38
:1020200088819981480F591F518340838A819B8100
:10203000938382832115310509F0B0CFF093870196
:10204000E09386019ECFFD01DC01C0CF1382128296
:10205000D7CFDC0101C06D9341505040E0F70895A7
:10206000B0E0A0E0E6E3F0E10C94D20CAE014B5FEF
:102070005F4FFA0161917191AF0180918001909160
:1020800081010E948104E2E00C94EE0CF894FFCFF1
:102090000000000200000000AC0100000000000091
:1020A0000003000000001101FB0000000000880197
:1020B0008000000040001400540046533A2564009C
:0E20C00047256400583A2564593A25642000EB
:00000001FF
