:100000000C94DC000C94F9000C94F9000C94F900A9
:100010000C9453020C94F9000C94F9000C94F90020
:100020000C94F9000C94F9000C94F9000C94F9006C
:100030000C94F9000C94F9000C94F9000C94F9005C
:100040000C94F9000C94F9000C9467020C94F900DC
:100050000C94F9000C94F9000C94F9000C94F9003C
:100060000C94F9000C94F9006E616E00696E6600E4
:1000700000407A10F35A00A0724E18090010A5D45F
:10008000E80000E87648170000E40B54020000CABC
:100090009A3B000000E1F505000080969800000002
:1000A00040420F000000A086010000001027000061
:1000B0000000E803000000006400000000000A00E7
:1000C000000000000100000000002C76D888DC67EA
:1000D0004F0823DFC1DFAE59E1B1B796E5E3E45342
:1000E000C63AE651997696E8E6C28426EB898C9B5F
:1000F00062ED407C6FFCEFBC9C9F40F2BAA56FA5FF
:10010000F490055A2AF75C936B6CF9676DC11BFC80
:10011000E0E40D47FEF520E6B500D0ED902E03009B
:10012000943577050080841E080000204E0A0000E8
:1001300000C80C333333330F986E12831141EF8DA7
:100140002114893BE65516CFFEE6DB18D1844B38E7
:100150001BF77C1D901DA4BBE424203284725E2218
:100160008100C9F124ECA1E53D276364696E6F70DD
:10017000737578585B65666745464700616E006E2B
:1001800066696E69747900CDCCCC3D0AD7233C17E3
:10019000B7D13877CC2B329595E6241FB14F0A00A2
:1001A0000020410000C84200401C4620BCBE4CCA92
:1001B0001B0E5AAEC59D740011241FBECFEFD8E0B0
:1001C000DEBFCDBF21E0ACE6B1E001C01D92A43B93
:1001D000B207E1F711E0A0E0B1E0ECE7F3E202C022
:1001E00005900D92AC36B107D9F70E94AA020C9483
:1001F000BC110C94000094EA2EE434E844E9909396
:10020000BC008091BC0087FFFCCF8091B900887F43
:10021000883011F0803199F72093BB003093BC00F7
:100220008091BC0087FFFCCF8091B900887F80322D
:1002300011F0883539F44093BC008091BC0084FDF6
:10024000FCCFDDCF08958091C00087FFFCCF809167
:10025000C00084FD08C08091C00083FD07C080916C
:10026000C60090E008958EEF9FEF08958FEF9FEF07
:100270000895CF93C82F8A3019F48DE00E94390178
:100280008091C00085FFFCCFC093C60090E080E065
:10029000CF9108951092C50087E68093C400E0ECEA
:1002A000F0E080818D7F808386E08093C20088E1CA
:1002B0008093C10008958093BB0084E88093BC00C4
:1002C0008091BC0087FFFCCF9091B900987F81E0BE
:1002D000983209F480E00895CF93C82F0E94FB0064
:1002E00080916F018C2B0E945B0184E98093BC009C
:1002F0008091BC0084FDFCCFCF910895CF93DF9314
:10030000C82FD82FDD7F8D2F0E946C018D2F846028
:100310000E946C0185E08A95F1F700008C2F897F9F
:100320000E946C0187EC90E00197F1F700C000009B
:10033000DF91CF910895CF93DF93D82FC62FC4605C
:10034000807F8C2B0E947E018D2F8295807F8C2B4D
:10035000DF91CF910C947E0161E00E949B0190E0BF
:1003600080E0089560E00C949B01CF93DF93CDB7BC
:10037000DEB728970FB6F894DEBF0FBECDBF98E06A
:10038000E2E2F1E0DE01119601900D929A95E1F71B
:100390009091A901891710F08FEF890F90E0880FD5
:1003A000991F21E030E02C0F3D1F820F931FFC01AD
:1003B0008081806828960FB6F894DEBF0FBECDBF4F
:1003C000DF91CF910C94B20180E091E09093AD0168
:1003D0008093AC0180916F01886080936F0184E00D
:1003E0008093A9012FEF80E792E021508040904058
:1003F000E1F700C000000E94FB0084E00E945B0166
:100400008FE891E00197F1F700C0000080E30E94BF
:100410007E018FE496E40197F1F700C0000080E3CD
:100420000E947E0187E592E00197F1F700C000008D
:1004300080E30E947E0187E592E00197F1F700C01A
:10044000000080E20E947E0187E592E00197F1F7CB
:1004500000C0000088E20E94B20110926E0188E0A4
:100460000E94B20180916E01982F946090936E016A
:100470008C600E94B20186E00E94B20180916E0100
:1004800088600E94B20188E10E94B20181E00E946E
:10049000B2019FEF26E781E0915020408040E1F7D4
:1004A00000C0000008951F920F920FB60F92112402
:1004B0008F939F93319904C085B190E2892785B9C4
:1004C0009F918F910F900FBE0F901F9018951F92C4
:1004D0000F920FB60F9211248F939F93EF93FF9378
:1004E00080919201909193010097E9F0019749F46E
:1004F0008091C600E0919401F0919501EE58FE4F75
:10050000808380919401909195010196909395013B
:1005100080939401FF91EF919F918F910F900FBE67
:100520000F901F901895E0919401F09195018091A2
:10053000C600E256FE4F8083809194019091950110
:100540000997F8F2109295011092940181E080933E
:10055000A801D7CF2F923F924F925F926F927F92D6
:100560008F929F92AF92BF92CF92DF92EF92FF92C3
:100570000F931F93CF93DF9300D000D0CDB7DEB79A
:100580001092B90088E48093B8000E944A018EE07E
:1005900091E09093AD018093AC019093AB01809377
:1005A000AA0187B1806387B988B1806388B9259A29
:1005B0008FEF8AB91BB880EF87B98FE388B9809134
:1005C000C10080688093C1007894809192019091DD
:1005D0009301892B09F4D5C04EE0242E41E0342E3E
:1005E00041015AE2A52E51E0B52E04E311E060E38B
:1005F000E62E61E0F62E8091920190919301019791
:1006000009F41BC18091920190919301029709F026
:1006100054C287B1807F87B988B18F6088B98AB1A9
:10062000837F8AB98BB18C608BB980916900807FA0
:10063000809369008DB383608DBB80916800866074
:100640008093680080916D00806880936D00809138
:100650006C008F6080936C0078940E94E40180E0CD
:100660000E94B501259A569A84B1886184B92B9A63
:100670002C9884B5836884BD85B5856085BDF89464
:100680008EE391E09F938F930E94A6110F900F909D
:100690001A8208E511E084E6E82E81E0F82E309910
:1006A0000BC0DA80D7BC2FEF33EC89E0215030400B
:1006B0008040E1F700C0000031991EC09A81965F2A
:1006C0009A8382E00E94B5016A80862D062C000C78
:1006D000990B9F936F921F930F930E94A6112FEF78
:1006E00033EC89E0215030408040E1F700C0000049
:1006F0000F900F900F900F9032991EC09A819A50D0
:100700009A8382E00E94B5016A80862D062C000C37
:10071000990B9F936F921F930F930E94A6112FEF37
:1007200033EC89E0215030408040E1F700C0000008
:100730000F900F900F900F903399B1CF99819170D6
:100740009C83698060FEB6C12C982B9A83E00E943E
:10075000B5011F92CC80CF92FF92EF920E94A6111A
:100760002C812F5F29833FEF83EC99E0315080404B
:100770009040E1F700C000000F900F900F900F9095
:100780008ECF8091A801882309F41FCF20919E016C
:1007900080919F0190E066246A94269D800D911DB2
:1007A000112490939D0180939C0180919C019091D4
:1007B0009D01892B21F080919C0190919D01809158
:1007C000A00190E090939B0180939A0180919A01FF
:1007D00090919B0162E070E0880F991F0E945E106B
:1007E000909397018093960180919A0190919B013B
:1007F00061E070E00E945E109093990180939801EF
:1008000090E080E0FC01E256FE4F20813091C00074
:1008100035FFFCCF2093C60001968A30910591F7F1
:100820001092A801109295011092940181E090E03D
:100830009093930180939201C8CE809194019091FE
:100840009501809708F4D7CE1092950110929401EB
:1008500090E080E0FC01EE58FE4F20813091C00016
:1008600035FFFCCF2093C60001968032910591F7A9
:10087000C0907001D0907101DB82CA820E94E401B5
:1008800080E00E94B50140919801509199016091DA
:1008900096017091970190E080E0FC01EE58FE4FC8
:1008A000A0819C012F5F3F4FA73409F0A9C0EA81C6
:1008B000FB81E40FF51FDD24D394D0822E583E4FE8
:1008C000D9012C91EA81FB81EE0FFF1FE60FF71F84
:1008D0002F702150330B31832083EA81FB813196C5
:1008E000FB83EA83019680329105BCF20E944A01A3
:1008F0003092AD012092AC019092AB018092AA019E
:100900008091700190917101019690937101809393
:100910007001C0909A01D0909B0160919C017091F0
:100920009D0190E080E00E94BC0C20E030E040E0BF
:100930005DE30E94F90C0E94DD0F2B013C01B60122
:1009400090E080E00E94BC0CA30192010E94F40F91
:10095000811151CE2D9A0E94E40180E00E94B501E0
:1009600080919C0190919D019F938F93BF92AF9234
:100970000E94A6110F900F900F900F901B821A8269
:1009800080919A0190919B01CA80DB80C816D9069C
:1009900008F031CE8A8183700E94B5018A819B81E3
:1009A000880F991FE0919801F0919901CA80DB802E
:1009B000EC0DFD1D2081E0919601F0919701E80F6B
:1009C000F91F222309F465C08081918101969F93CC
:1009D0008F93FF92EF920E94A6110F900F900F90AD
:1009E0000F902FEF38E08DE3215030408040E1F749
:1009F00000C00000AA81BB811196BB83AA83C0CF2F
:100A0000E081E83509F06ECFEA81FB81E40FF51F44
:100A10001082EA81FB81EE0FFF1FE60FF71F1082A5
:100A2000A22F8A2F932F9C012E583E4F2901D901C6
:100A3000DC909C012F5F3F4FB9E5DB121DC0118296
:100A400021E030E06201C20ED31ED6017C90B72DAA
:100A5000B07309F442CF7180AAE06A2E769C702CA4
:100A600011247182D601DC90BD2DBF70DB2ED70C16
:100A7000D1822F5F3F4FE6CF8081BAE06B2E869DFB
:100A8000902D11249083D2018C918F70890F8083D7
:100A9000C7CF81811F928F9380811F928F931F9365
:100AA0000F930E94A6110F900F900F900F900F9030
:100AB0000F9097CF2B982C9A49CE90E080E00F9022
:100AC0000F900F900F90DF91CF911F910F91FF909A
:100AD000EF90DF90CF90BF90AF909F908F907F90DE
:100AE0006F905F904F903F902F900895AFE0B0E0EF
:100AF000ECE7F5E00C94B70D6C011B015A01FC0109
:100B000017821682838181FF48C39E012F5F3F4F6A
:100B10004901F6019381F10193FD859193FF819144
:100B20001F01882309F4E7C2853239F493FD8591CA
:100B300093FF81911F01853239F4B60190E00E9444
:100B4000340F35015301E5CFF12C512C00E0003278
:100B500038F48B3209F190F48032F9F0833209F1E4
:100B600007FD34C020ED280F2A3020F506FF1BC0FA
:100B7000FAE0FF9E200D1124F22E05C08D3279F08F
:100B8000803371F70160F10193FD859193FF8191AD
:100B90001F018111DCCF1AC002600460F4CF08602D
:100BA000F2CF0061F0CF3AE0539E200D1124522E77
:100BB0000062E9CF8E3221F406FD9DC20064E3CFCE
:100BC0008C3611F40068DFCF8836E9F29BEB980F82
:100BD000933008F05FC00061805E06FD02C046E011
:100BE000F42E102F1F73853609F05BC0106417FFB9
:100BF00061C08F2D9BE39F1508F48BE3442443943D
:100C0000480E27E03501F4E06F0E711CF50160819C
:100C1000718182819381042DA4010E94EE0D5C01FB
:100C2000F981FC87F0FF03C00DE2F3FF07C00BE280
:100C300011FD04C0012F047012FD00E22C852C7000
:100C4000E22E09F457C00111ABC2F3E0E12CF51517
:100C5000A0F483E0E52CE81A13FD08C0B60180E299
:100C600090E00E94340FEA94E110F8CF002329F0BD
:100C7000B601802F90E00E94340F3C8528E6A22E1A
:100C800020E0B22E33FD04C09CE6A92E90E0B92EE0
:100C9000107122C09BE9980F933008F033C10F7E8A
:100CA0009CCF863611F41068A2CFFF2009F49FCFA5
:100CB000FA949DCFE7E02F2DEF1518F427E037E0E9
:100CC000F32E412C9FCF11118052B60190E00E946B
:100CD000340F8FEFA81AB80AF50184918111F3CF70
:100CE000EE2009F42FCFB60180E290E00E94340F8D
:100CF000EA94F6CF17FF6FC04A0CFC85F4FF04C0DE
:100D00008A81813309F44A9414140CF086C028E0D7
:100D1000241510F488E0482E85E090E017FF06C007
:100D2000C501B7FE02C090E080E001960111019676
:100D3000FF2031F02F2D30E02F5F3F4F820F931FA8
:100D40005816190619F014F0E52CE81A812F89704D
:100D500011F4E11067C0002329F0B601802F90E064
:100D60000E94340F13FD02C0E11063C017FF7CC066
:100D70008501B7FE02C010E000E0C50184199109A9
:100D80002C016F2D70E0EE27FF27E61BF70BFF8786
:100D9000EE870F3F100729F4B6018EE290E00E9423
:100DA000340FA016B1060CF44BC0401651060CF0DF
:100DB00047C0F501E01BF10BE80DF91D81810150E1
:100DC00011092E853F8502171307E4F1B60190E063
:100DD0000E94340FDECF16FD9FCFEF2DF0E0EA1515
:100DE000FB0534F03CEFA3163FEFB3060CF01068A0
:100DF0003296E80DF91D01C0FA94FF2019F0829196
:100E00008033D1F317FF88CF442443944F0CFA1456
:100E10001B0431F02CF0FA187FCF442443947CCF8C
:100E2000F12C7ACFB60180E290E00E94340FEA9470
:100E300090CFB60180E390E00E94340FEA9494CF03
:100E400080E3BDCFA016B10641F49A81963350F4E9
:100E5000953319F43C8534FF05C0B60190E00E943B
:100E6000340F3ECF81E3F9CF8A81813319F09C851D
:100E70009F7E9C87B60190E00E94340FFF20A9F06E
:100E8000B6018EE290E00E94340FF394F394E2E016
:100E900001E00E0FE80DF92DF11D8081B60190E003
:100EA0000E94340FE02F0F11F3CF85E690E014FF7E
:100EB00002C085E490E0B6010E94340FB7FC06C082
:100EC000A114B104C1F4EC85E4FF15C0B194A19460
:100ED000B1088DE2B60190E00E94340F80E32AE071
:100EE000A216B10454F4B60190E00E94340FB6018A
:100EF000C501C096B4CF8BE2EDCF8F5FFAE0AF1A99
:100F0000B108EDCF8336C9F0833771F1833509F02D
:100F10005BC03501F2E06F0E711CF501A080B1805D
:100F20006F2D70E006FD02C06FEF7FEFC5010E94DC
:100F3000E20E9D878C8700680DC0350132E0630E9C
:100F4000711CF5018081898321E030E03D872C8789
:100F500054010F7703FD06C02C853D8552161306FC
:100F600009F0A8F4E52C2BC0350132E0630E711CAA
:100F7000F501A080B1806F2D70E006FD02C06FEF1B
:100F80007FEFC5010E94ED0E9D878C87E2CFB601F1
:100F900080E290E00E94340F5A94DECFF50107FD05
:100FA000859107FF81915F01B60190E00E94340FA7
:100FB000E110EA948C859D8501979D878C87EC854F
:100FC000FD85EF2B59F78CCE843619F0893609F060
:100FD00074C0350107FF66C0F4E06F0E711CF501A7
:100FE0006081718182819381102F1F7697FF08C0E5
:100FF00090958095709561957F4F8F4F9F4F1068AA
:101000002AE030E0A4010E947C0FA82EA818BA2C78
:10101000012F16FF0AC00E7FAF1438F414FF04C06E
:1010200012FD02C0012F0E7EBF2C04FF8EC0FE01F8
:10103000EA0DF11D8081803309F080C0097EF02F18
:10104000F870EF2E03FD90C000FF8AC0FA2CB51493
:1010500010F4F50CFB1804FF8DC0B60180E390E09E
:101060000E94340F02FF09C088E790E001FF02C030
:1010700088E590E0B6010E94340FAF1408F486C0F2
:10108000AA940A2D10E00F5F1F4F080D191DF801DB
:1010900082918F01B60190E00E94340F8016910674
:1010A000B1F71ECEF2E06F0E711CF5016081718107
:1010B000072E000C880B990B97CF102F8537A9F4BA
:1010C0001F7E2AE030E0350117FF2FC0F4E06F0EDD
:1010D000711CF5016081718182819381A4010E945C
:1010E0007C0FA82EA8181F7792CF197F8F36D1F0CA
:1010F00048F4883591F0F601868197812F96E2E1D8
:101100000C94D30D803739F08837A9F714FD14609B
:1011100020E130E0D8CF1061F9CF04FD166020E166
:1011200032E0D1CF28E030E0CECFF2E06F0E711C7C
:10113000F5016081718190E080E0D0CF02FD02C0B6
:10114000B3947DCFB394B3947ACF802F867809F48B
:1011500076CFF6CFB60180E290E00E94340FB394D0
:10116000B514C0F3E12C77CFE52CEB18B51408F4D7
:1011700072CFF8CF802F867809F47FCF8BE201FF02
:1011800080E207FD8DE2B60190E075CFB60180E305
:1011900090E00E94340FFA9470CF8FEF9FEFAECFA4
:1011A00024E0E12C251508F063CD84E053CD20FD2B
:1011B00009C0FC0123FD05C022FF02C073836283C6
:1011C00051834083089544FD17C046FD1DC0DB01D7
:1011D000FC01AA0FBB1FEE1FFF1F1094D1F76A0F6F
:1011E0007B1F8E1F9F1F660F771F881F991F620F1F
:1011F000711D811D911D089533E0660F771F881FB3
:10120000991F3150D1F7F3CF34E0F7CF0F931F93ED
:10121000CF93DF938C01C8010E94F80EEC0197FD7B
:1012200008C00E94C60E892BB1F7B801CE010E94FA
:10123000640FCE01DF91CF911F910F910895B0E01F
:10124000A0E0E5E2F9E00C94BD0D7C018B016A01A0
:10125000D22F0E94F80E9C0133272B32310521F04A
:101260002D32310579F4D0680150110931F480E054
:10127000CDB7DEB7ECE00C94D90DC7010E94F80E93
:1012800097FDF5CFCD2FCD7F2D2F207309F580331E
:10129000F9F4580181E0A81AB10891F0C7010E9441
:1012A000F80E97FD0DC0282F2F7D283569F4C264F4
:1012B0000250110929F0C7010E94F80E97FF08C0DB
:1012C000812C912C54011BC0D6FF2BC0C26085011C
:1012D000812C912C540120ED280F283028F1C4FDD9
:1012E00009C02A3008F1C6FF05C02F7D3FEE320F3E
:1012F0003630C8F0B7010E94640FC1FFB8CFC7FFF6
:1013000008C0B094A09490948094811C911CA11C5E
:10131000B11C2C2FB501A401C6010E94D70881E0A1
:10132000A7CFC261D4CF27504C2FC501B4010E9472
:10133000E3084B015C01C2600150110901F3C701D0
:101340000E94F80E97FFC7CFD8CFA0E2B0E0EBEA3B
:10135000F9E00C94BB0D5C014B017A01CE010196C2
:101360006C0180E2F60111928A95E9F7F501B381EB
:10137000890130E020E0612C712CA0E041E050E0D8
:10138000F801B3FD8591B3FF8191982F8F018111F1
:1013900007C010E000E0C801A096EEE00C94D70D65
:1013A0008E3519F42115310541F1A21713064CF4BD
:1013B0008D3549F18D3229F4711006C0772473946C
:1013C0001DC0772009F465C0E92FE695E695E695FE
:1013D000EC0DFD2DF11D892F8770BA0101C0660F3C
:1013E0008A95EAF78081682B6083691651F096151B
:1013F00010F49F5FE9CF9150E7CFA1E02F5F3F4FFF
:10140000BFCF712CFBCF772019F08E8180628E8345
:10141000AA2359F0F6019E012F5D3F4F80818095F0
:1014200080833196E217F307C9F777247394C501D7
:101430000E94F80E97FD16C0E82FE695E695E69512
:10144000EC0DFD2DF11D208130E0AC0147705527DA
:1014500002C0359527954A95E2F720FD06C0B501F3
:101460000E94640F772071F094CFE114F10429F009
:10147000F7018083C70101967C0191E0891A9108E8
:10148000712CA9F6E114F10409F485CFF70110825B
:1014900082CFE82FE695E695E695EC0DFD2DF11D42
:1014A000982F9770BA0101C0660F9A95EAF790815C
:1014B000692B6083682EA2CF2F923F924F925F924A
:1014C0006F927F929F92AF92BF92CF92DF92EF92F4
:1014D000FF920F931F93CF93DF936C018B011A013F
:1014E0000E94F80EEC0199278B32910521F08D971F
:1014F000C9F0B12C20C0B12C01501109B1F480E029
:10150000DF91CF911F910F91FF90EF90DF90CF90DF
:10151000BF90AF909F907F906F905F904F903F9063
:101520002F90089530E8B32EE7CFC6010E94F80E41
:10153000EC0197FDE4CFCE010E94CF0E89369105D4
:1015400009F4C0C08E36910509F4ACC0412C512C71
:101550003201F12CE12C2C2F20539B2C2A3008F047
:10156000CFC0689491F88B2D8870B2FEB0C0811105
:1015700003C0EFEFEE1AFE0A0150110931F0C60167
:101580000E94F80EEC0197FFA0C091FEB8CF8C2FFF
:101590008F7D853409F042C05801E1E0AE1AB108F0
:1015A00009F4ADCFC6010E94F80EEC0197FDA7CF5C
:1015B00099278B32910521F08D9761F4689494F806
:1015C0005801F2E0AF1AB10809F499CFC6010E94A0
:1015D000F80EEC01CE01C0970A9708F090CF10E00A
:1015E00000E0B801110F880B990B2C2F205340E21B
:1015F0000E94E3088B0121E0A21AB10839F0C6016C
:101600000E94F80EEC01C0970A9758F394FE03C0AD
:10161000119501951109E00EF11E8501012B31F0A4
:10162000D7FD04C0B601CE010E94640FC301B20110
:101630000E94BC0CC3EBD1E0F7FE05C0F194E1942D
:10164000F108CBE9D1E06E01E8E1CE1AD10800E261
:1016500010E067C00150110971F0C6010E94F80E38
:101660003C0197FD08C00E94CF0EF816E9F0B601C4
:10167000C3010E94640FC258D14009F040CF80E0FE
:1016800090E0A0E8BFE7BC01CD019B2C97FC9058EF
:101690002114310429F0F1016083718382839383E3
:1016A00081E02ECFCCE7D1E02196FE013197F49076
:1016B000F110D0CFCF57D14011F780E090E0A0ECEF
:1016C000BFE7E1CFCFE7D1E0EFCFB92C44CF8823FC
:1016D00019F0F1E0EF1AF10840E2C301B2010E94F3
:1016E000E3082B013C0128E9421629E9520662066B
:1016F00029E1720608F440CF8B2D8660982E3CCFEE
:101700002E3F09F042CFB3FC40CF689493F834CF1A
:10171000FE0125913591459154910E94F90CE01AF2
:10172000F10AE016F106A0F7249716950795CC1557
:10173000DD05B9F7ABCFB0E0A0E0E1EAFBE00C9447
:10174000BB0D5C01EB014A01FC0117821682612C82
:10175000F5010381FE0103FD859103FF8191182F9F
:10176000EF018823E9F090E00E94C60E892B21F05A
:10177000C5010E940609ECCF153241F4FE0103FDBC
:10178000159103FF1191EF01153269F4C5010E9413
:10179000F80E97FD96C01817D9F2B5010E94640F94
:1017A000862D90E092C0712C1A3239F403FD159108
:1017B00003FF1191EF0177247394F12CE12C20EDBC
:1017C000210F2A3050F171FE38C0E114F10441F3C9
:1017D0001836B9F11C3609F43FC0112309F3612F03
:1017E00070E08AE691E00E94D70E892BC9F2D12CD5
:1017F000C12C70FC06C0F401C080D180C4010296E7
:101800004C011E3691F5F5014681578170E060E08C
:10181000272DC6010E94D7089BCF689471F8B701A5
:1018200090E080E040E20E94E3087B01FE0103FDBE
:10183000159103FF1191EF01C2CFEE24EA94FE2C23
:10184000C7CFFE0103FD159103FF1191EF0118367B
:1018500009F0C3CF689473F8689472F8FE0103FD31
:10186000159103FF1191EF01B8CF1336D1F471FC3C
:1018700003C0EE24E394F12CC5010E94F80E97FDFD
:1018800020C0C114D10429F0F6018083C60101965D
:101890006C0191E0E91AF10879F770FC59CF639473
:1018A00057CF1B35B9F49E01A601B701C5010E94AF
:1018B000A509EC01892B89F7F5018381807309F46F
:1018C0006FCF8FEF9FEF61106BCFCDB7DEB7EEE03C
:1018D0000C94D70DC5010E94060997FDF2CF1F3663
:1018E00009F447C090F4143609F440C0193621F0C9
:1018F000183581F4689476F8272DA601B701C50143
:101900000E941F098111C9CFD7CF1337D1F040F4FE
:10191000103781F3A601B701C5010E945C0AF2CF1E
:10192000153721F1183731F3F5CFC114D10429F05F
:10193000F6010083C60101966C0191E0E91AF108F5
:1019400071F0C5010E94F80E8C0197FD08C00E943D
:10195000C60E892B51F3B501C8010E94640FC11452
:10196000D10409F49ACFF601108297CF689475F8E4
:10197000C3CF689474F8C0CFE89409C097FB3EF4D5
:1019800090958095709561957F4F8F4F9F4F9923CC
:10199000A9F0F92F96E9BB279395F695879577954A
:1019A0006795B795F111F8CFFAF4BB0F11F460FF0A
:1019B0001BC06F5F7F4F8F4F9F4F16C0882311F062
:1019C00096E911C0772321F09EE8872F762F05C076
:1019D000662371F096E8862F70E060E02AF09A9511
:1019E000660F771F881FDAF7880F9695879597F906
:1019F00008950E940C0D0C947D0D0E946F0D38F01F
:101A00000E94760D20F0952311F00C94660D0C9435
:101A10006C0D11240C94B10D0E948E0D70F3959FE6
:101A2000C1F3950F50E0551F629FF001729FBB27D5
:101A3000F00DB11D639FAA27F00DB11DAA1F649F71
:101A40006627B00DA11D661F829F2227B00DA11D24
:101A5000621F739FB00DA11D621F839FA00D611DAA
:101A6000221F749F3327A00D611D231F849F600DCB
:101A7000211D822F762F6A2F11249F5750409AF0F4
:101A8000F1F088234AF0EE0FFF1FBB1F661F771F80
:101A9000881F91505040A9F79E3F510580F00C944B
:101AA000660D0C94B10D5F3FE4F3983ED4F3869538
:101AB00077956795B795F795E7959F5FC1F7FE2BEB
:101AC000880F911D9695879597F9089597F99F67C7
:101AD00080E870E060E008959FEF80EC08950024B6
:101AE0000A941616170618060906089500240A9483
:101AF00012161306140605060895092E0394000C09
:101B000011F4882352F0BB0F40F4BF2B11F460FF97
:101B100004C06F5F7F4F8F4F9F4F089557FD9058C0
:101B2000440F551F59F05F3F71F04795880F97FBA1
:101B3000991F61F09F3F79F087950895121613065B
:101B40001406551FF2CF4695F1DF08C0161617068A
:101B50001806991FF1CF86957105610508940895BF
:101B6000E894BB2766277727CB0197F908952F9232
:101B70003F924F925F926F927F928F929F92AF921D
:101B8000BF92CF92DF92EF92FF920F931F93CF936A
:101B9000DF93CDB7DEB7CA1BDB0B0FB6F894DEBF01
:101BA0000FBECDBF09942A88398848885F846E8427
:101BB0007D848C849B84AA84B984C884DF80EE8071
:101BC000FD800C811B81AA81B981CE0FD11D0FB67A
:101BD000F894DEBF0FBECDBFED010895283008F0A8
:101BE00027E03327DA01990F311D87FD91600096B8
:101BF0006105710539F432602E5F3D9330E32A951B
:101C0000E1F708959F3F30F080387105610509F0D4
:101C10003C5F3C5F3D93913008F08068911DDF93FD
:101C2000CF931F930F93FF92EF92192F987F969562
:101C3000E92F96959695E90FFF27E653FF4F9927D1
:101C40003327EE24FF24A701E701059008940794A9
:101C500028F4360FE71EF81E491F511D660F771F27
:101C6000881F991F0694A1F70590079428F4E70EA2
:101C7000F81E491F561FC11D770F881F991F661F29
:101C80000694A1F70590079428F4F80E491F561FF3
:101C9000C71FD11D880F991F661F771F0694A1F7D4
:101CA0000590079420F4490F561FC71FD81F990F9E
:101CB000661F771F881F0694A9F7849110951770E7
:101CC00041F0D695C79557954795F794E7941A959F
:101CD000C1F7E0E7F0E068941590159135916591B2
:101CE000959105907FE27395E118F10A430B560B2D
:101CF000C90BD009C0F7E10CF11E431F561FC91FC5
:101D0000D01D7EF4703311F48A95E6CFE89401502B
:101D100030F0080F0AF40027021708F4202F23954B
:101D2000022F7A3328F079E37D932A95E9F710C0E2
:101D30007D932A9589F6069497956795379517951B
:101D40001794E118F10A430B560BC90BD00998F010
:101D500023957E9173957A3308F070E37C9320137A
:101D6000B8F77E9170617D9330F0839571E37D9338
:101D700070E32A95E1F71124EF90FF900F911F91E6
:101D8000CF91DF91992787FD9095089591110C943B
:101D9000DA0F803219F089508550C8F708959111F3
:101DA000089581548A5108F4805E855A0895FC0193
:101DB0000590061621F00020D9F7C001089531974B
:101DC000CF010895FC010590615070400110D8F7D3
:101DD000809590958E0F9F1F0895FC016150704073
:101DE00001900110D8F7809590958E0F9F1F089550
:101DF000CF93DF93EC012B8120FF1AC026FF0CC08C
:101E00002F7B2B838E819F8101969F838E838A8176
:101E100090E0DF91CF91089522FF18C0E881F98109
:101E20008081082E000C990B009729F420622B83E7
:101E30008FEF9FEFEECF3196F983E8832E813F81BC
:101E40002F5F3F4F3F832E839927E3CFEA85FB85A2
:101E5000099597FFF3CF2B81019621F080E2822B29
:101E60008B83E6CF80E1FBCF0F931F93CF93DF935C
:101E7000182F092FEB018B8181FD09C01FEF0FEF98
:101E8000812F902FDF91CF911F910F91089582FFA5
:101E900014C02E813F818C819D81281739073CF425
:101EA000E881F981CF0101969983888310838E811F
:101EB0009F8101969F838E83E3CFE885F985812FEB
:101EC0000995892BA1F3DACFFB01238120FF11C0F3
:101ED00026FD0FC08F3F980771F082832F7D20640D
:101EE000238326813781215031093783268399271F
:101EF00008958FEF9FEF0895FA01AA27283051F136
:101F0000203181F1E8946F936E7F6E5F7F4F8F4F2A
:101F10009F4FAF4FB1E03ED0B4E03CD0670F781F89
:101F2000891F9A1FA11D680F791F8A1F911DA11D6E
:101F30006A0F711D811D911DA11D20D009F46894A7
:101F40003F912AE0269F11243019305D3193DEF64F
:101F5000CF010895462F4770405D4193B3E00FD005
:101F6000C9F7F6CF462F4F70405D4A3318F0495DF0
:101F700031FD4052419302D0A9F7EACFB4E0A695D3
:101F80009795879577956795BA95C9F700976105F5
:101F9000710508959B01AC010A2E0694579547954B
:101FA00037952795BA95C9F7620F731F841F951F40
:101FB000A01D08959927882708950E94461090F043
:101FC0009F3748F4911116F40C94B10D60E070E065
:101FD00080E89FE3089526F01B16611D711D811D89
:101FE0000C941D100C9438100E94F90F08F481E035
:101FF0000895990F0008550FAA0BE0E8FEEF16169A
:102000001706E807F907C0F012161306E407F507EC
:1020100098F0621B730B840B950B39F40A2661F060
:10202000232B242B252B21F408950A2609F4A14003
:10203000A6958FEF811D811D0895882371F4772364
:1020400021F09850872B762F07C0662311F499272B
:102050000DC09051862B70E060E02AF09A95660FD3
:10206000771F881FDAF7880F9695879597F9089557
:102070009F3F31F0915020F4879577956795B795FC
:10208000880F911D9695879597F908950E94960D52
:10209000A0F0BEE7B91788F4BB279F3860F4161686
:1020A000B11D672F782F8827985FF7CF8695779592
:1020B0006795B11D93959639C8F308950F931F93B3
:1020C000CF93DF93869F8001879F100D969F100D01
:1020D0001124C8010E947A10EC01009729F0A80190
:1020E00070E060E00E949F11CE01DF91CF911F91BF
:1020F0000F9108950F931F93CF93DF938230910533
:1021000010F482E090E0E091B201F091B30130E090
:1021100020E0B0E0A0E0309799F42115310509F4F2
:102120004AC0281B390B24303105D8F58A819B81A0
:102130006115710589F1FB0193838283FE0111C052
:10214000408151810281138148175907E0F04817F7
:10215000590799F4109761F012960C931297139601
:102160001C933296CF01DF91CF911F910F9108956B
:102170000093B2011093B301F4CF2115310551F052
:102180004217530738F0A901DB019A01BD01DF01B5
:10219000F801C1CFEF01F9CF9093B3018093B20161
:1021A000CDCFFE01E20FF31F8193919322503109AD
:1021B00039832883D7CF2091B0013091B101232BEF
:1021C00041F420911E0130911F013093B101209301
:1021D000B00120911C0130911D012115310541F400
:1021E0002DB73EB74091200150912101241B350BA2
:1021F000E091B001F091B101E217F307A0F42E1BBA
:102200003F0B2817390778F0AC014E5F5F4F24175A
:10221000350748F04E0F5F1F5093B1014093B00156
:10222000819391939FCFF0E0E0E09CCFCF93DF9339
:102230000097E9F0FC01329713821282A091B2015B
:10224000B091B301ED0130E020E01097A1F42081BE
:102250003181820F931F2091B0013091B101281775
:10226000390709F061C0F093B101E093B001DF914B
:10227000CF910895EA01CE17DF07E8F54A815B8127
:102280009E0141155105B1F7E901FB83EA834991AC
:102290005991C40FD51FEC17FD0761F4808191811E
:1022A0000296840F951FE901998388838281938127
:1022B0009B838A83F0E0E0E012968D919C911397C6
:1022C0000097B9F52D913C911197CD010296820F9F
:1022D000931F2091B0013091B1012817390739F6C9
:1022E000309751F51092B3011092B201B093B10141
:1022F000A093B001BCCFD383C28340815181840FAE
:10230000951FC817D90761F44E5F5F4F8881998187
:10231000480F591F518340838A819B819383828315
:102320002115310509F0B0CFF093B301E093B2016C
:102330009ECFFD01DC01C0CF13821282D7CFDC011A
:1023400001C06D9341505040E0F70895B0E0A0E027
:10235000ECEAF1E10C94C70DAE014B5F5F4FFA015F
:1023600061917191AF018091AC019091AD010E949A
:0C2370007605E2E00C94E30DF894FFCF3A
:10237C000000000200000000AC01000000000000A2
:10238C000003000000003901230100000000B4012B
:10239C008000000040001400540046533A256400AD
:1023AC0047256400583A2564593A25642000423385
:1023BC003A73657442343A696E6342353A646563C4
:1023CC0042363A646963680064657350574D3A202D
:0C23DC00257520006469723A2564000039
:00000001FF
