:100000000C941E010C943F010C943F010C943F0191
:100010000C943F010C943F010C943F010C943F0160
:100020000C943F010C943F010C943F010C94A702E7
:100030000C943F010C943F010C943F010C943F0140
:100040000C943F010C943F010C943F010C943F0130
:100050000C943F010C943F010C943F010C943F0120
:100060000C943F010C94D7020C943F010C943F0177
:100070000C943F010C943F010C943F010C943F0100
:100080000C943F010C943F010C943F010C943F01F0
:100090000C943F010C943F010C943F010C943F01E0
:1000A0000C943F010C9497010C943F010C943F0178
:1000B0000C943F010C9406020C941D020C943F0119
:1000C0000C943F010C943F010C948C020C943F0162
:1000D0000C943F010C943F010C943F010C943F01A0
:1000E0000C943F010C9457010C9441016E616E0019
:1000F000696E660000407A10F35A00A0724E18092B
:100100000010A5D4E80000E87648170000E40B547E
:10011000020000CA9A3B000000E1F505000080964D
:100120009800000040420F000000A086010000007F
:10013000102700000000E803000000006400000039
:1001400000000A00000000000100000000002C7602
:10015000D888DC674F0823DFC1DFAE59E1B1B7961D
:10016000E5E3E453C63AE651997696E8E6C284267A
:10017000EB898C9B62ED407C6FFCEFBC9C9F40F256
:10018000BAA56FA5F490055A2AF75C936B6CF967D2
:100190006DC11BFCE0E40D47FEF520E6B500D0ED97
:1001A000902E0300943577050080841E08000020FF
:1001B0004E0A000000C80C333333330F986E12839D
:1001C0001141EF8D2114893BE65516CFFEE6DB1871
:1001D000D1844B381BF77C1D901DA4BBE424203236
:1001E00084725E228100C9F124ECA1E53D2763649D
:1001F000696E6F70737578585B6566674546470032
:10020000616E006E66696E69747900CDCCCC3D0A72
:10021000D7233C17B7D13877CC2B329595E6241FDE
:10022000B14F0A000020410000C84200401C462097
:10023000BCBE4CCA1B0E5AAEC59D740011241FBE15
:10024000CFEFD1E2DEBFCDBF00E00CBF2FE1AEEFBC
:10025000B2E001C01D92A834B207E1F712E0A0E0BD
:10026000B2E0ECE9F8E200E00BBF02C007900D92AB
:10027000AE3FB107D9F70E9427030C944C140C949D
:1002800000008091C00087FFFCCF8091C00084FDFA
:1002900008C08091C00083FD07C08091C60090E037
:1002A00008958EEF9FEF08958FEF9FEF0895CF93FE
:1002B000C82F8A3019F48DE00E9457018091C00048
:1002C00085FFFCCFC093C60090E080E0CF910895F9
:1002D0008A988B9A08958C988D9A0895019719F4AD
:1002E0008D988C9A08950C946B01E0E9F0E0808180
:1002F000816A8083E1E9F0E080818D6080838DB147
:1003000088618DB98EB1877E8EB980B38C6380BBD6
:1003100081B3846181BB81B3877D81BB10929900D9
:100320001092980010929B0010929A0008951F92CC
:100330000F920FB60F9211240BB60F922F933F938B
:100340004F935F936F937F938F939F93AF93BF93DD
:10035000EF93FF9360919600709197008091120344
:1003600090911303681B790B90E080E00E940B10C2
:100370009B01AC0165E575E585E59EE30E94671389
:1003800060930E0370930F038093100390931103F7
:1003900060910A0370910B0380910C0390910D03FF
:1003A00025E535E545E55EE30E94F61260930A0314
:1003B00070930B0380930C0390930D03109213031F
:1003C00010921203279A85B1805885B988EF92E080
:1003D0009F938F930E943814809114038F5F8093B2
:1003E00014030F900F90FF91EF91BF91AF919F91E8
:1003F0008F917F916F915F914F913F912F910F90CE
:100400000BBE0F900FBE0F901F9018951F920F926A
:100410000FB60F9211248F939F93809112039091A6
:100420001303019690931303809312039F918F916E
:100430000F900FBE0F901F9018951F920F920FB63E
:100440000F9211240BB60F922F933F934F935F930C
:100450006F937F938F939F93AF93BF93EF93FF938C
:100460006091860070918700809108039091090344
:10047000681B790B90E080E00E940B109B01AC019F
:1004800065E575E585E59EE30E94671360930403C7
:100490007093050380930603909307036091000314
:1004A00070910103809102039091030325E535E5E6
:1004B00045E55EE30E94F61260930003709301032A
:1004C0008093020390930303109209031092080390
:1004D00088EF92E09F938F930E943814279A85B1FA
:1004E000805885B9809115038F5F809315030F9015
:1004F0000F90FF91EF91BF91AF919F918F917F915D
:100500006F915F914F913F912F910F900BBE0F9084
:100510000FBE0F901F9018951F920F920FB60F925B
:1005200011248F939F938091080390910903019662
:100530009093090380930803279A85B1805885B961
:100540009F918F910F900FBE0F901F9018951F9243
:100550000F920FB60F9211242F938F939F93809138
:10056000060187FD19C0279A85B1805885B9809109
:100570002F1F9091301F0397B9F482E090E0909381
:10058000301F80932F1F2FEF83EC99E02150804084
:100590009040E1F700C000009F918F912F910F9044
:1005A0000FBE0F901F90189583E090E0E8CF1F9248
:1005B0000F920FB60F9211240BB60F928F939F9349
:1005C000EF93FF9380912F1F9091301F009741F17F
:1005D000019791F48091C600E091FE02F091FF0234
:1005E000E156F24F80838091FE029091FF020196C6
:1005F0009093FF028093FE028091311F9091321FF1
:1006000001969093321F8093311FFF91EF919F913C
:100610008F910F900BBE0F900FBE0F901F901895EB
:10062000E091311FF091321F8091C600E95CF04EDD
:1006300080838091311F9091321F0997E8F21092C8
:10064000321F1092311F81E08093411FD5CFCF938D
:10065000DF93CDB7DEB763970FB6F894DEBF0FBE5A
:10066000CDBF1092C50087E68093C4008091C00082
:100670008D7F8093C00086E08093C20088E18093E4
:10068000C10080E092E09093451F8093441F9093B7
:10069000431F8093421F80910701109207018091B0
:1006A00008018FEF8093080184B18A7F84B985B1F6
:1006B000856085B98091680084608093680080912E
:1006C0006D00806880936D0078940E947501809120
:1006D0009000896080939000809191008960809360
:1006E00091006D9A759880B3806C80BB8E9A8F98BC
:1006F00010929D0010929C008091C10080688093B0
:10070000C100789480912F1F9091301F892B09F49C
:100710009EC0EAE0BE2EAA24A394F4E16F2EF2E07C
:100720007F2EA4EF4A2EA2E05A2E02E010E0809124
:100730002F1F9091301F019709F4C6C080912F1F81
:100740009091301F029709F4A9C100E010E01982CE
:100750001C8280912F1F9091301F039799F68091F2
:10076000060183FD20C0F9818F2F90E090939900BE
:1007700080939800812F90E090939B0080939A0043
:10078000802F90E090939D0080939C00279A85B1E4
:10079000805885B92FEF33EC49E02150304040407C
:1007A000E1F700C000008091060184FD10C059816E
:1007B000565F5983279A85B1805885B96FEF73ECDE
:1007C00089E0615070408040E1F700C000008091F6
:1007D000060185FD10C099819A509983279A85B1A9
:1007E000805885B9EFEFF3EC29E0E150F04020406C
:1007F000E1F700C000008091060186FD1FC03C812A
:1008000031703C83832F90E00E946E014C81442321
:1008100009F44CC48B988A9A8F988E9A279A85B13E
:10082000805885B95C815F5F5C836FEF77EA81E612
:10083000615070408040E1F700C00000189B165FD7
:100840001A9987CF0FEF1FEF9FEF998382CF809187
:10085000411F882309F456CF3091371F8091381FEC
:100860002FEF90E0329F800D911D11249093361F41
:100870008093351F3091391F80913A1F90E0329F4D
:10088000800D911D11249093341F8093331F90E0AD
:1008900080E0FC01E95CF04E20813091C00035FF22
:1008A000FCCF2093C60001968A30910591F71092F3
:1008B000411F1092321F1092311F81E090E09093FF
:1008C000301F80932F1F1ECF2091311F3091321F78
:1008D0008091351F9091361F2817390708F427CFCC
:1008E0001092321F1092311F90E080E02091351F4E
:1008F0003091361F82179307B8F18091C1008F772E
:100900008093C1002090351F3090361F90E080E02A
:1009100030E020E0821593059CF18091351F909185
:10092000361F9F938F932EE032E03F932F930E94C8
:10093000381486E1E82E83E0F82E9CE1892E9AE0B7
:10094000992E0F900F900F900F90D12CC12C809169
:10095000331F9091341FC816D90608F474C0109341
:10096000301F00932F1FE3CEFC01E156F24F208190
:100970003091C00035FFFCCF2093C6000196B6CF62
:10098000FC01E156F24FA081AC014F5F5F4FA734ED
:10099000B1F4F901E45EF54FA0824156524FFA01DD
:1009A0004081F901EE0FFF1FEA5EFC4F4F7041508E
:1009B000550B518340832F5F3F4F0196ABCFE081B2
:1009C000E835D9F7F901E45EF54F10824901880C4A
:1009D000991CD401AA5EBC4F1C92CA014156524FC9
:1009E000FA01D0807C01FFEFEF1AFF0A69E5D61209
:1009F00020C0F401EA5EFC4F1182A1E0B0E0BF012B
:100A00006F5F7F4F4B017A01EA0EFB1EF701D0802A
:100A1000FD2DF07381F2F701F080F401E080FF2DED
:100A2000FF70FF2EEB9CF00C1124F401F082119664
:100A3000EACFFA0180819C918F709B9D800D1124DB
:100A40008C93A701CACFF40181914F01F70188234C
:100A5000A1F08081918101969F938F935F924F9235
:100A60000E9438140F900F900F900F90FFEFCF1A45
:100A7000DF0A22E0E20EF11C6ACF81811F928F9380
:100A800080811F928F937F926F920E9438140F90F3
:100A90000F900F900F900F900F90E8CF80910A0168
:100AA0008C7F80930A0180910B01836080930B01FE
:100AB0008091A100806C8093A1008091A10085604D
:100AC0008093A10080912101806C8093210180910D
:100AD0002101856080932101809172008162809361
:100AE0007200809173008162809373000E9475018F
:100AF00081E090E00E946E0184E690E0909399007E
:100B0000809398003FEF43ED50E331504040504018
:100B1000E1F700C000000E946B016FEF73ED80E30E
:100B2000615070408040E1F700C0000010929900D1
:100B3000109298000E946B019FEFEBE7F2E9915051
:100B4000E040F040E1F700C0000026E133E03A83E6
:100B500029834CE15AE0598748871C821A8A1E82F1
:100B60001D828091331F9091341F6D817E816817A3
:100B7000790798F0109299001092980010929900BD
:100B8000109298007AEA86EE96E9E1E07150804092
:100B90009040E040D9F70000D1CD5E815F936D8138
:100BA0006F938EE192E09F938F930E943814288573
:100BB0003985398B288B0F900F900F900F90F9018A
:100BC0008081811160C13C81232F30E03B872A87DF
:100BD0005A89452F50E05D874C87E981FA818181F0
:100BE0001F928F931F92FC81FF93E981FA8180818C
:100BF0001F928F931F92FA89FF932EE232E03F9368
:100C00002F930E943814E981FA81F181FE87E981EE
:100C1000FA81F081FF876F2F70E090E080E00E9402
:100C20000B106B017C012A89622F70E090E080E05C
:100C30000E940B109B01AC01C701B6010E94F51286
:100C40006B017C013E85632F70E090E080E00E94A4
:100C50000B104B015C014C81642F70E090E080E050
:100C60000E940B109B01AC01C501B4010E94F5125A
:100C70004B015C010FB6F894DEBF0FBECDBF20E084
:100C800030E0A901C701B6010E9433141816CCF553
:100C900081E090E00E946E0176E47F8320E030E006
:100CA000A901C501B4010E94331418160CF043C009
:100CB0008B988A9AE6E4EB8320E030E0A901C70133
:100CC000B6010E94621387FF04C0F7FAF094F7F8A8
:100CD000F09420E030E0A901C501B4010E94621344
:100CE00087FD3FC04F81433509F44FC05B815335C9
:100CF00009F004C184E690E09093990080939800F5
:100D00004CC020E030E0A901C701B6010E94621387
:100D100087FF05C00E946B0182E48F83BFCF20E074
:100D200030E0A901C701B6010E9462138111B6CF5C
:100D300093E59F83B3CF20E030E0A901C501B40162
:100D40000E94621387FF12C00E94680120E030E019
:100D5000A901C701B6010E94621387FD13C0F2E426
:100D6000FB83B7FAB094B7F8B094BCCF20E030E082
:100D7000A901C501B4010E94621381119DCF23E531
:100D80002B839ACF32E43B83A0CF1092990010922C
:100D900098006B81633509F0AAC010929B001092F5
:100DA0009A001C821B8A712C612C10E01A8A4E85D5
:100DB000242F30E05F85852F90E0BF92AF929F9205
:100DC0008F926A857B85261B370B3F932F937F93EA
:100DD0006F931F924F93FF92EF92DF92CF92EC8529
:100DE000FD858E1B9F0B9F938F93FF93EF931F9215
:100DF0005F9329E832E03F932F930E9438141F92AB
:100E00005A895F931F926F816F9384EB92E09F9357
:100E10008F930E9438141F921F931F92FB81FF93A0
:100E20002AEC32E03F932F930E9438140FB6F894C7
:100E3000DEBF0FBECDBF6F927F927B897F938C8187
:100E40008F93E0EEF2E0FF93EF930E943814E98174
:100E5000FA81F081FA8BE981FA81F181FC830F90AC
:100E60000F900F900F900F900F90809115032A898B
:100E7000821728F4809114033C818317B0F31092F9
:100E8000150310921403488559854F5F5F4F5987AA
:100E90004887E889F98980818823E1F0E981FA812E
:100EA0008081918101969F938F938BEE92E09F9327
:100EB0008F930E943814E981FA81808191810F908B
:100EC0000F900F900F90009709F0E6C010929D00D0
:100ED00010929C002D813E812F5F3F4F3E832D83DA
:100EE00049815A814E5F5F4F5A8349833ACEE4E687
:100EF000F0E0F0939B00E0939A0053CFA701960196
:100F0000C501B4010E9467131B012C016C833B8A4D
:100F1000782E652C20E030E040E85FE3732D842DCF
:100F2000952D0E94621387FF67C0F4E6FA8B2AC0F2
:100F3000FA89FF5FFA8B6F2F70E090E080E00E94EB
:100F40000D10BC81AB89F3012B2F3A2F4F2F562D5B
:100F50000E9448109F938F937F936F9329E532E00F
:100F60003F932F930E9438141F925A895F9360E732
:100F700072E07F936F930E9438140FB6F894DEBF2F
:100F80000FBECDBF2A89622F70E090E080E00E9402
:100F90000D10BC81AB89F3012B2F3A2F4F2F562D0B
:100FA0000E94481020E030E040E752E40E946213C3
:100FB00087FF04C03A893F3F09F0BACF4A89642FBE
:100FC00070E090E080E00E940B10222D332D442D24
:100FD000552D0E9448100E94D913162F2A89822F5E
:100FE00090E09093990080939800812F90E09093E7
:100FF0009B0080939A00DBCE20E030E040E85FE386
:10100000622D732D842D952D0E94331404E610E07B
:101010001816DCF020E030E040E85FE3622D732D2D
:10102000842D952D0E946213882391F110E01A8A75
:10103000D5CF1F930F936DE772E07F936F930E945C
:1010400038140F900F900F900F900A8BB801012E5B
:10105000000C880B990B0E940D10BC81AB89F30129
:101060002B2F3A2F4F2F562D0E94481020E030E0B2
:101070004FE753E40E94331418163CF40150110951
:1010800007321105B1F698E29A8BEA896E2F98CF54
:1010900014E6F4E6FA8BA2CF019709F01BCF8EE19C
:1010A00090E090939D0080939C0014CF0E94680173
:1010B0008E988F9AB3CB2F923F924F925F926F92FE
:1010C0007F928F929F92AF92BF92CF92DF92EF92D8
:1010D000FF920F931F93CF93DF93CDB7DEB72F9778
:1010E0000FB6F894DEBF0FBECDBF6C011B015A01D5
:1010F000FC011782168283819E012F5F3F4F4901B9
:1011000081FDD2C08FEF9FEFEEC2F12C512C00E099
:10111000003238F48B3209F190F48032F9F08332E6
:1011200009F107FD34C020ED280F2A3020F506FF15
:101130001BC0FAE0FF9E200D1124F22E05C08D3257
:1011400079F0803371F70160F10193FD859193FF90
:1011500081911F018111DCCF1AC002600460F4CFBD
:101160000860F2CF0061F0CF3AE0539E200D1124C9
:10117000522E0062E9CF8E3221F406FDB1C2006426
:10118000E3CF8C3611F40068DFCF8836E9F29BEBB1
:10119000980F933008F05FC00061805E06FD02C0CA
:1011A00046E0F42E102F1F73853609F05BC01064E3
:1011B00017FF61C08F2D9BE39F1508F48BE3442438
:1011C0004394480E27E03501F4E06F0E711CF501E1
:1011D0006081718182819381042DA4010E94061196
:1011E0005C01F981FC87F0FF03C00DE2F3FF07C04B
:1011F0000BE211FD04C0012F047012FD00E22C85EA
:101200002C70E22E09F46BC00111D8C2F3E0E12C7E
:10121000F515A0F483E0E52CE81A13FD08C0B6012B
:1012200080E290E00E944C12EA94E110F8CF002393
:1012300029F0B601802F90E00E944C123C852CEEE4
:10124000A22E20E0B22E33FD04C090EFA92E90E034
:10125000B92E107122C09BE9980F933008F047C156
:101260000F7E9CCF863611F41068A2CFFF2009F4C0
:101270009FCFFA949DCFE7E02F2DEF1518F427E0CC
:1012800037E0F32E412C9FCF11118052B60190E030
:101290000E944C128FEFA81AB80AF50184918111AF
:1012A000F3CFE11084C25301F6019381F10193FD64
:1012B000859193FF81911F01882309F411C2853222
:1012C00041F493FD859193FF81911F01853209F0CF
:1012D0001CCFB60190E00E944C123501E4CF17FFFD
:1012E0006FC04A0CFC85F4FF04C08A81813309F485
:1012F0004A9414140CF086C028E0241510F488E0F9
:10130000482E85E090E017FF06C0C501B7FE02C079
:1013100090E080E0019601110196FF2031F02F2D21
:1013200030E02F5F3F4F820F931F5816190619F0B8
:1013300014F0E52CE81A812F897011F4E11067C0D0
:10134000002329F0B601802F90E00E944C1213FD7B
:1013500002C0E11063C017FF7CC08501B7FE02C068
:1013600010E000E0C501841991092C016F2D70E097
:10137000EE27FF27E61BF70BFF87EE870F3F1007CF
:1013800029F4B6018EE290E00E944C12A016B1063C
:101390000CF44BC0401651060CF047C0F501E01BA1
:1013A000F10BE80DF91D8181015011092E853F8552
:1013B00002171307E4F1B60190E00E944C12DECF51
:1013C00016FD9FCFEF2DF0E0EA15FB0534F03CEF62
:1013D000A3163FEFB3060CF010683296E80DF91D26
:1013E00001C0FA94FF2019F082918033D1F317FFE6
:1013F00088CF442443944F0CFA141B0431F02CF092
:10140000FA187FCF442443947CCFF12C7ACFB601D5
:1014100080E290E00E944C12EA9490CFB60180E303
:1014200090E00E944C12EA9494CF80E3BDCFA016C6
:10143000B10641F49A81963350F4953319F43C8502
:1014400034FF05C0B60190E00E944C122ACF81E320
:10145000F9CF8A81813319F09C859F7E9C87B601E4
:1014600090E00E944C12FF20A9F0B6018EE290E0BD
:101470000E944C12F394F394E2E001E00E0FE80DA9
:10148000F92DF11D8081B60190E00E944C12E02FF1
:101490000F11F3CF85E690E014FF02C085E490E0E1
:1014A000B6010E944C12B7FC06C0A114B104C1F4ED
:1014B000EC85E4FF15C0B194A194B1088DE2B601AA
:1014C00090E00E944C1280E32AE0A216B10454F48A
:1014D000B60190E00E944C12B601C501C096B4CF8F
:1014E0008BE2EDCF8F5FFAE0AF1AB108EDCF833614
:1014F000C9F0833771F1833509F05BC03501F2E043
:101500006F0E711CF501A080B1806F2D70E006FD9B
:1015100002C06FEF7FEFC5010E94FA119D878C8793
:1015200000680DC0350132E0630E711CF501808149
:10153000898321E030E03D872C8754010F7703FD3C
:1015400006C02C853D855216130609F0A8F4E52C3B
:101550002BC0350132E0630E711CF501A080B18013
:101560006F2D70E006FD02C06FEF7FEFC5010E9496
:1015700005129D878C87E2CFB60180E290E00E9441
:101580004C125A94DECFF50107FD859107FF81913A
:101590005F01B60190E00E944C12E110EA948C8544
:1015A0009D8501979D878C87EC85FD85EF2B59F7ED
:1015B00078CE843619F0893609F074C0350107FFFA
:1015C00066C0F4E06F0E711CF5016081718182814B
:1015D0009381102F1F7697FF08C090958095709586
:1015E00061957F4F8F4F9F4F10682AE030E0A40134
:1015F0000E949412A82EA818BA2C012F16FF0AC018
:101600000E7FAF1438F414FF04C012FD02C0012F86
:101610000E7EBF2C04FFA3C0FE01EA0DF11D8081E8
:10162000803309F095C0097EF02FF870EF2E03FD8E
:10163000A5C000FF9FC0FA2CB51410F4F50CFB18E0
:1016400004FFA2C0B60180E390E00E944C1202FFAA
:1016500009C088E790E001FF02C088E590E0B6018C
:101660000E944C12AF1408F49BC0AA940A2D10E0FB
:101670000F5F1F4F080D191DF80182918F01B601F0
:1016800090E00E944C1280169106B1F70ACEF2E06B
:101690006F0E711CF50160817181072E000C880BA3
:1016A000990B97CF102F8537A9F41F7E2AE030E0E1
:1016B000350117FF44C0F4E06F0E711CF501608125
:1016C000718182819381A4010E949412A82EA8188E
:1016D0001F7792CF197F8F3679F1F0F4883539F181
:1016E000F601868197812F960FB6F894DEBF0FBE64
:1016F000CDBFDF91CF911F910F91FF90EF90DF90C1
:10170000CF90BF90AF909F908F907F906F905F90A1
:101710004F903F902F900895803739F0883701F728
:1017200014FD146020E130E0C3CF1061F9CF04FD57
:10173000166020E132E0BCCF28E030E0B9CFF2E023
:101740006F0E711CF5016081718190E080E0BBCF6C
:1017500002FD02C0B39468CFB394B39465CF802FD9
:10176000867809F461CFF6CFB60180E290E00E945E
:101770004C12B394B514C0F3E12C62CFE52CEB18F6
:10178000B51408F45DCFF8CF802F867809F46ACFBE
:101790008BE201FF80E207FD8DE2B60190E060CFB1
:1017A000B60180E390E00E944C12FA945BCFB60140
:1017B00080E290E00E944C12EA9473CD24E0E12C88
:1017C000251508F036CD84E026CD20FD09C0FC01AA
:1017D00023FD05C022FF02C07383628351834083CF
:1017E000089544FD17C046FD1DC0DB01FC01AA0F92
:1017F000BB1FEE1FFF1F1094D1F76A0F7B1F8E1FB8
:101800009F1F660F771F881F991F620F711D811D13
:10181000911D089533E0660F771F881F991F31507F
:10182000D1F7F3CF34E0F7CF0F931F93CF93DF932C
:101830008C01C8010E941012EC0197FD08C00E94A3
:10184000DE11892BB1F7B801CE010E947C12CE01C6
:10185000DF91CF911F910F9108958F929F92AF9238
:10186000BF92CF92DF92EF92FF920F931F93CF938D
:10187000DF937C018B016A01D22F0E9410129C0120
:1018800033272B32310521F02D323105B9F4D068E0
:101890000150110971F480E0DF91CF911F910F91F8
:1018A000FF90EF90DF90CF90BF90AF909F908F9080
:1018B0000895C7010E94101297FDEDCFCD2FCD7F67
:1018C0002D2F207309F58033F9F4580181E0A81A0F
:1018D000B10891F0C7010E94101297FD0DC0282F8A
:1018E0002F7D283569F4C2640250110929F0C7011F
:1018F0000E94101297FF08C0812C912C54011BC02C
:10190000D6FF2BC0C2608501812C912C540120EDA3
:10191000280F283028F1C4FD09C02A3008F1C6FF7D
:1019200005C02F7D3FEE320F3630C8F0B7010E9460
:101930007C12C1FFB0CFC7FF08C0B094A0949094B0
:101940008094811C911CA11CB11C2C2FB501A401F9
:10195000C6010E94E50B81E09FCFC261D4CF275022
:101960004C2FC501B4010E94F10B4B015C01C26018
:101970000150110901F3C7010E94101297FFC7CF50
:10198000D8CF6F927F928F929F92AF92BF92CF9259
:10199000DF92EF92FF920F931F93CF93DF93CDB718
:1019A000DEB7A0970FB6F894DEBF0FBECDBF5C01C7
:1019B0004B017A01CE0101966C0180E2F601119291
:1019C0008A95E9F7F501B381890130E020E0612CC7
:1019D000712CA0E041E050E0F801B3FD8591B3FF28
:1019E0008191982F8F01811118C010E000E0C8018B
:1019F000A0960FB6F894DEBF0FBECDBFDF91CF919A
:101A00001F910F91FF90EF90DF90CF90BF90AF901C
:101A10009F908F907F906F9008958E3519F42115C7
:101A2000310541F1A21713064CF48D3549F18D3281
:101A300029F4711006C0772473941DC0772009F42F
:101A400065C0E92FE695E695E695EC0DFD2DF11DB7
:101A5000892F8770BA0101C0660F8A95EAF78081E5
:101A6000682B6083691651F0961510F49F5FE9CFDB
:101A70009150E7CFA1E02F5F3F4FAECF712CFBCF4E
:101A8000772019F08E8180628E83AA2359F0F601A7
:101A90009E012F5D3F4F8081809580833196E217B4
:101AA000F307C9F777247394C5010E94101297FDBC
:101AB00016C0E82FE695E695E695EC0DFD2DF11D97
:101AC000208130E0AC014770552702C0359527953D
:101AD0004A95E2F720FD06C0B5010E947C127720EE
:101AE00071F083CFE114F10429F0F7018083C7017D
:101AF00001967C0191E0891A9108712CA9F6E114F4
:101B0000F10409F474CFF701108271CFE82FE69544
:101B1000E695E695EC0DFD2DF11D982F9770BA0115
:101B200001C0660F9A95EAF79081692B6083682E51
:101B3000A2CF2F923F924F925F926F927F929F928D
:101B4000AF92BF92CF92DF92EF92FF920F931F93CB
:101B5000CF93DF936C018B011A010E941012EC01EC
:101B600099278B32910521F08D97C9F0B12C20C0B7
:101B7000B12C01501109B1F480E0DF91CF911F9198
:101B80000F91FF90EF90DF90CF90BF90AF909F901C
:101B90007F906F905F904F903F902F90089530E826
:101BA000B32EE7CFC6010E941012EC0197FDE4CFDF
:101BB000CE010E94E7118936910509F4C0C08E3626
:101BC000910509F4ACC0412C512C3201F12CE12CCF
:101BD0002C2F20539B2C2A3008F0CFC0689491F80A
:101BE0008B2D8870B2FEB0C0811103C0EFEFEE1AEA
:101BF000FE0A0150110931F0C6010E941012EC01D9
:101C000097FFA0C091FEB8CF8C2F8F7D853409F04F
:101C100042C05801E1E0AE1AB10809F4ADCFC601E7
:101C20000E941012EC0197FDA7CF99278B329105E6
:101C300021F08D9761F4689494F85801F2E0AF1A9E
:101C4000B10809F499CFC6010E941012EC01CE012F
:101C5000C0970A9708F090CF10E000E0B801110F8C
:101C6000880B990B2C2F205340E20E94F10B8B0123
:101C700021E0A21AB10839F0C6010E941012EC014D
:101C8000C0970A9758F394FE03C011950195110966
:101C9000E00EF11E8501012B31F0D7FD04C0B60125
:101CA000CE010E947C12C301B2010E940B10C7E357
:101CB000D2E0F7FE05C0F194E194F108CFE1D2E063
:101CC0006E01E8E1CE1AD10800E210E067C00150D1
:101CD000110971F0C6010E9410123C0197FD08C065
:101CE0000E94E711F816E9F0B601C3010E947C12C8
:101CF000C650D24009F040CF80E090E0A0E8BFE7B6
:101D0000BC01CD019B2C97FC90582114310429F083
:101D1000F101608371838283938381E02ECFC0E0E1
:101D2000D2E02196FE013197F490F110D0CFC3504C
:101D3000D24011F780E090E0A0ECBFE7E1CFC3E034
:101D4000D2E0EFCFB92C44CF882319F0F1E0EF1A9D
:101D5000F10840E2C301B2010E94F10B2B013C01EA
:101D600028E9421629E95206620629E1720608F4BA
:101D700040CF8B2D8660982E3CCF2E3F09F042CF6E
:101D8000B3FC40CF689493F834CFFE012591359190
:101D9000459154910E944810E01AF10AE016F106AC
:101DA000A0F7249716950795CC15DD05B9F7ABCFAD
:101DB0006F927F928F929F92AF92BF92CF92DF925B
:101DC000EF92FF920F931F93CF93DF935C01EB0190
:101DD0004A01FC0117821682612CF5010381FE0184
:101DE00003FD859103FF8191182FEF018823E9F00E
:101DF00090E00E94DE11892B21F0C5010E94140C95
:101E0000ECCF153241F4FE0103FD159103FF119152
:101E1000EF01153269F4C5010E94101297FD96C0BA
:101E20001817D9F2B5010E947C12862D90E092C05D
:101E3000712C1A3239F403FD159103FF1191EF0152
:101E400077247394F12CE12C20ED210F2A3050F1EE
:101E500071FE38C0E114F10441F31836B9F11C36B3
:101E600009F43FC0112309F3612F70E08EEE91E079
:101E70000E94EF11892BC9F2D12CC12C70FC06C035
:101E8000F401C080D180C40102964C011E3691F548
:101E9000F5014681578170E060E0272DC6010E9460
:101EA000E50B9BCF689471F8B70190E080E040E2C9
:101EB0000E94F10B7B01FE0103FD159103FF1191BF
:101EC000EF01C2CFEE24EA94FE2CC7CFFE0103FD42
:101ED000159103FF1191EF01183609F0C3CF6894F3
:101EE00073F8689472F8FE0103FD159103FF1191D8
:101EF000EF01B8CF1336D1F471FC03C0EE24E394A4
:101F0000F12CC5010E94101297FD20C0C114D1040C
:101F100029F0F6018083C60101966C0191E0E91A6F
:101F2000F10879F770FC59CF639457CF1B3509F549
:101F30009E01A601B701C5010E94C10CEC01892BCD
:101F400089F7F5018381807309F46FCF8FEF9FEFDD
:101F500061106BCFDF91CF911F910F91FF90EF90A8
:101F6000DF90CF90BF90AF909F908F907F906F90B9
:101F70000895C5010E94140C97FDE8CF1F3609F49F
:101F800047C090F4143609F440C0193621F01835D2
:101F900081F4689476F8272DA601B701C5010E9447
:101FA0002D0C8111BFCFCDCF1337D1F040F41037B6
:101FB00081F3A601B701C5010E94990DF2CF153733
:101FC00021F1183731F3F5CFC114D10429F0F6010E
:101FD0000083C60101966C0191E0E91AF10871F0E5
:101FE000C5010E9410128C0197FD08C00E94DE11ED
:101FF000892B51F3B501C8010E947C12C114D10490
:1020000009F490CFF60110828DCF689475F8C3CF94
:10201000689474F8C0CFE89409C097FB3EF490959B
:102020008095709561957F4F8F4F9F4F9923A9F0B1
:10203000F92F96E9BB279395F69587957795679540
:10204000B795F111F8CFFAF4BB0F11F460FF1BC084
:102050006F5F7F4F8F4F9F4F16C0882311F096E917
:1020600011C0772321F09EE8872F762F05C06623C5
:1020700071F096E8862F70E060E02AF09A95660F7E
:10208000771F881FDAF7880F9695879597F9089537
:102090000E945B100C94CC100E94BE1038F00E947D
:1020A000C51020F0952311F00C94B5100C94BB10C2
:1020B00011240C9400110E94DD1070F3959FC1F360
:1020C000950F50E0551F629FF001729FBB27F00DE6
:1020D000B11D639FAA27F00DB11DAA1F649F66273B
:1020E000B00DA11D661F829F2227B00DA11D621F8A
:1020F000739FB00DA11D621F839FA00D611D221F44
:10210000749F3327A00D611D231F849F600D211D27
:10211000822F762F6A2F11249F5750409AF0F1F0AA
:1021200088234AF0EE0FFF1FBB1F661F771F881F13
:1021300091505040A9F79E3F510580F00C94B51086
:102140000C9400115F3FE4F3983ED4F386957795A5
:102150006795B795F795E7959F5FC1F7FE2B880FB9
:10216000911D9695879597F9089597F99F6780E84F
:1021700070E060E008959FEF80EC089500240A94D9
:102180001616170618060906089500240A94121652
:102190001306140605060895092E0394000C11F485
:1021A000882352F0BB0F40F4BF2B11F460FF04C032
:1021B0006F5F7F4F8F4F9F4F089557FD9058440F8B
:1021C000551F59F05F3F71F04795880F97FB991F96
:1021D00061F09F3F79F08795089512161306140653
:1021E000551FF2CF4695F1DF08C0161617061806E0
:1021F000991FF1CF86957105610508940895E894BB
:10220000BB2766277727CB0197F90895283008F078
:1022100027E03327DA01990F311D87FD9160009681
:102220006105710539F432602E5F3D9330E32A95E4
:10223000E1F708959F3F30F080387105610509F09E
:102240003C5F3C5F3D93913008F08068911DDF93C7
:10225000CF931F930F93FF92EF92192F987F96952C
:10226000E92F96959695E90FFF27E25BFE4F992798
:102270003327EE24FF24A701E70105900894079473
:1022800028F4360FE71EF81E491F511D660F771FF1
:10229000881F991F0694A1F70590079428F4E70E6C
:1022A000F81E491F561FC11D770F881F991F661FF3
:1022B0000694A1F70590079428F4F80E491F561FBD
:1022C000C71FD11D880F991F661F771F0694A1F79E
:1022D0000590079420F4490F561FC71FD81F990F68
:1022E000661F771F881F0694A9F7849110951770B1
:1022F00041F0D695C79557954795F794E7941A9569
:10230000C1F7E4EFF0E0689415901591359165916F
:10231000959105907FE27395E118F10A430B560BF6
:10232000C90BD009C0F7E10CF11E431F561FC91F8E
:10233000D01D7EF4703311F48A95E6CFE8940150F5
:1023400030F0080F0AF40027021708F4202F239515
:10235000022F7A3328F079E37D932A95E9F710C0AC
:102360007D932A9589F606949795679537951795E5
:102370001794E118F10A430B560BC90BD00998F0DA
:1023800023957E9173957A3308F070E37C93201344
:10239000B8F77E9170617D9330F0839571E37D9302
:1023A00070E32A95E1F71124EF90FF900F911F91B0
:1023B000CF91DF91992787FD9095089591110C9405
:1023C000F212803219F089508550C8F708959111A2
:1023D000089581548A5108F4805E855A0895FC015D
:1023E0000590061621F00020D9F7C0010895319715
:1023F000CF010895FC010590615070400110D8F79D
:10240000809590958E0F9F1F0895FC01615070403C
:1024100001900110D8F7809590958E0F9F1F089519
:10242000CF93DF93EC012B8120FF1AC026FF0CC055
:102430002F7B2B838E819F8101969F838E838A8140
:1024400090E0DF91CF91089522FF18C0E881F981D3
:102450008081082E000C990B009729F420622B83B1
:102460008FEF9FEFEECF3196F983E8832E813F8186
:102470002F5F3F4F3F832E839927E3CFEA85FB856C
:10248000199597FFF3CF2B81019621F080E2822BE3
:102490008B83E6CF80E1FBCF0F931F93CF93DF9326
:1024A000182F092FEB018B8181FD09C01FEF0FEF62
:1024B000812F902FDF91CF911F910F91089582FF6F
:1024C00014C02E813F818C819D81281739073CF4EF
:1024D000E881F981CF0101969983888310838E81E9
:1024E0009F8101969F838E83E3CFE885F985812FB5
:1024F0001995892BA1F3DACFFB01238120FF11C0AD
:1025000026FD0FC08F3F980771F082832F7D2064D6
:1025100023832681378121503109378326839927E8
:1025200008958FEF9FEF0895FA01AA27283051F1FF
:10253000203181F1E8946F936E7F6E5F7F4F8F4FF4
:102540009F4FAF4FB1E03ED0B4E03CD0670F781F53
:10255000891F9A1FA11D680F791F8A1F911DA11D38
:102560006A0F711D811D911DA11D20D009F4689471
:102570003F912AE0269F11243019305D3193DEF619
:10258000CF010895462F4770405D4193B3E00FD0CF
:10259000C9F7F6CF462F4F70405D4A3318F0495DBA
:1025A00031FD4052419302D0A9F7EACFB4E0A6959D
:1025B0009795879577956795BA95C9F700976105BF
:1025C000710508959B01AC010A2E06945795479515
:1025D00037952795BA95C9F7620F731F841F951F0A
:1025E000A01D08959927882708955058BB27AA272A
:1025F0000E940D130C94CC100E94BE1038F00E9463
:10260000C51020F039F49F3F19F426F40C94BB1048
:102610000EF4E095E7FB0C94B510E92F0E94DD1055
:1026200058F3BA17620773078407950720F079F407
:10263000A6F50C94FF100EF4E0950B2EBA2FA02DEA
:102640000B01B90190010C01CA01A0011124FF275F
:10265000591B99F0593F50F4503E68F11A16F0405A
:10266000A22F232F342F4427585FF3CF4695379559
:102670002795A795F0405395C9F77EF41F16BA0B1E
:10268000620B730B840BBAF09150A1F0FF0FBB1FCC
:10269000661F771F881FC2F70EC0BA0F621F731F15
:1026A000841F48F4879577956795B795F7959E3F72
:1026B00008F0B0CF9395880F08F09927EE0F979503
:1026C000879508950E940F1408F481E008950E94F0
:1026D0007B130C94CC100E94C51058F00E94BE10C1
:1026E00040F029F45F3F29F00C94B51051110C947F
:1026F00000110C94BB100E94DD1068F39923B1F314
:10270000552391F3951B550BBB27AA276217730717
:10271000840738F09F5F5F4F220F331F441FAA1FAB
:10272000A9F335D00E2E3AF0E0E832D09150504067
:10273000E695001CCAF72BD0FE2F29D0660F771F15
:10274000881FBB1F261737074807AB07B0E809F0FB
:10275000BB0B802DBF01FF2793585F4F3AF09E3F80
:10276000510578F00C94B5100C9400115F3FE4F320
:10277000983ED4F3869577956795B795F7959F5FC3
:10278000C9F7880F911D9695879597F90895E1E00F
:10279000660F771F881FBB1F621773078407BA076E
:1027A00020F0621B730B840BBA0BEE1F88F7E095C9
:1027B00008950E94E0136894B1110C9400110895DB
:1027C0000E94E51088F09F5798F0B92F9927B751CC
:1027D000B0F0E1F0660F771F881F991F1AF0BA95C5
:1027E000C9F714C0B13091F00E94FF10B1E0089514
:1027F0000C94FF10672F782F8827B85F39F0B93F06
:10280000CCF3869577956795B395D9F73EF4909577
:102810008095709561957F4F8F4F9F4F0895990FC9
:102820000008550FAA0BE0E8FEEF16161706E8079A
:10283000F907C0F012161306E407F50798F0621BBB
:10284000730B840B950B39F40A2661F0232B242B90
:10285000252B21F408950A2609F4A140A6958FEFAF
:10286000811D811D08950E940F1408F48FEF0895B3
:10287000CF93DF93CDB7DEB7AE014A5F5F4FFA016A
:1028800061917191AF018091441F9091451F0E9409
:0C2890005B08DF91CF910895F894FFCF12
:10289C0000000003000000005701410100004653F6
:1028AC003A256400583A2564593A256420000A50A8
:1028BC0072696E74496E6465783A202564000A4723
:1028CC006F2066726F6D20783A20256420746F201B
:1028DC00256420616E642066726F6D20793A202524
:1028EC006420616E64202564007768696C652063E0
:1028FC006F6E646974696F6E3A2025662020200023
:10290C004261736550574D3A2025640A0042617349
:10291C006550574D3A202564000A64783A202564A6
:10292C00202D202564203D20256420282566292C77
:10293C00202564202D202564203D20256420282579
:10294C0066290A00585F6469723A2025632C20536B
:10295C00706565643A2025640A00595F6469723AAF
:10296C002025632C2053706565643A2025640A0089
:10297C00536C6F70653A2025660A000A45786563CA
:0E298C00757465204725640048656C6C6F000B
:00000001FF
